{
  "_format": "hh-sol-artifact-1",
  "contractName": "TokenShop",
  "sourceName": "contracts/TokenShop.sol",
  "abi": [
    {
      "inputs": [
        {
          "internalType": "address",
          "name": "tokenAddress",
          "type": "address"
        }
      ],
      "stateMutability": "nonpayable",
      "type": "constructor"
    },
    {
      "inputs": [],
      "name": "TokenShop__CouldNotWithdraw",
      "type": "error"
    },
    {
      "inputs": [],
      "name": "TokenShop__InvalidPrice",
      "type": "error"
    },
    {
      "inputs": [],
      "name": "TokenShop__MissingPriceFeed",
      "type": "error"
    },
    {
      "inputs": [],
      "name": "TokenShop__StalePrice",
      "type": "error"
    },
    {
      "inputs": [],
      "name": "TokenShop__ZeroETHSent",
      "type": "error"
    },
    {
      "anonymous": false,
      "inputs": [],
      "name": "BalanceWithdrawn",
      "type": "event"
    },
    {
      "anonymous": false,
      "inputs": [
        {
          "indexed": true,
          "internalType": "address",
          "name": "previousOwner",
          "type": "address"
        },
        {
          "indexed": true,
          "internalType": "address",
          "name": "newOwner",
          "type": "address"
        }
      ],
      "name": "OwnershipTransferred",
      "type": "event"
    },
    {
      "anonymous": false,
      "inputs": [
        {
          "indexed": true,
          "internalType": "address",
          "name": "buyer",
          "type": "address"
        },
        {
          "indexed": false,
          "internalType": "uint256",
          "name": "ethAmount",
          "type": "uint256"
        },
        {
          "indexed": false,
          "internalType": "uint256",
          "name": "tokenAmount",
          "type": "uint256"
        }
      ],
      "name": "TokensPurchased",
      "type": "event"
    },
    {
      "inputs": [],
      "name": "TOKEN_DECIMALS",
      "outputs": [
        {
          "internalType": "uint256",
          "name": "",
          "type": "uint256"
        }
      ],
      "stateMutability": "view",
      "type": "function"
    },
    {
      "inputs": [],
      "name": "TOKEN_USD_PRICE",
      "outputs": [
        {
          "internalType": "uint256",
          "name": "",
          "type": "uint256"
        }
      ],
      "stateMutability": "view",
      "type": "function"
    },
    {
      "inputs": [
        {
          "internalType": "address",
          "name": "token",
          "type": "address"
        },
        {
          "internalType": "address",
          "name": "feed",
          "type": "address"
        }
      ],
      "name": "addTokenPriceFeed",
      "outputs": [],
      "stateMutability": "nonpayable",
      "type": "function"
    },
    {
      "inputs": [
        {
          "internalType": "uint256",
          "name": "amountInETH",
          "type": "uint256"
        }
      ],
      "name": "amountToMint",
      "outputs": [
        {
          "internalType": "uint256",
          "name": "",
          "type": "uint256"
        }
      ],
      "stateMutability": "view",
      "type": "function"
    },
    {
      "inputs": [],
      "name": "getChainlinkDataFeedLatestAnswer",
      "outputs": [
        {
          "internalType": "int256",
          "name": "",
          "type": "int256"
        }
      ],
      "stateMutability": "view",
      "type": "function"
    },
    {
      "inputs": [
        {
          "internalType": "address",
          "name": "token",
          "type": "address"
        }
      ],
      "name": "getPrice",
      "outputs": [
        {
          "internalType": "uint256",
          "name": "",
          "type": "uint256"
        }
      ],
      "stateMutability": "view",
      "type": "function"
    },
    {
      "inputs": [],
      "name": "i_token",
      "outputs": [
        {
          "internalType": "contract MyToken",
          "name": "",
          "type": "address"
        }
      ],
      "stateMutability": "view",
      "type": "function"
    },
    {
      "inputs": [],
      "name": "owner",
      "outputs": [
        {
          "internalType": "address",
          "name": "",
          "type": "address"
        }
      ],
      "stateMutability": "view",
      "type": "function"
    },
    {
      "inputs": [],
      "name": "renounceOwnership",
      "outputs": [],
      "stateMutability": "nonpayable",
      "type": "function"
    },
    {
      "inputs": [
        {
          "internalType": "address",
          "name": "tokenIn",
          "type": "address"
        },
        {
          "internalType": "address",
          "name": "tokenOut",
          "type": "address"
        },
        {
          "internalType": "uint256",
          "name": "amountIn",
          "type": "uint256"
        }
      ],
      "name": "swapTokens",
      "outputs": [
        {
          "internalType": "uint256",
          "name": "",
          "type": "uint256"
        }
      ],
      "stateMutability": "nonpayable",
      "type": "function"
    },
    {
      "inputs": [
        {
          "internalType": "address",
          "name": "",
          "type": "address"
        }
      ],
      "name": "tokenPriceFeeds",
      "outputs": [
        {
          "internalType": "contract AggregatorV3Interface",
          "name": "",
          "type": "address"
        }
      ],
      "stateMutability": "view",
      "type": "function"
    },
    {
      "inputs": [
        {
          "internalType": "address",
          "name": "newOwner",
          "type": "address"
        }
      ],
      "name": "transferOwnership",
      "outputs": [],
      "stateMutability": "nonpayable",
      "type": "function"
    },
    {
      "inputs": [],
      "name": "withdraw",
      "outputs": [],
      "stateMutability": "nonpayable",
      "type": "function"
    },
    {
      "stateMutability": "payable",
      "type": "receive"
    }
  ],
  "bytecode": "0x60c060405234801561001057600080fd5b506040516110a13803806110a183398101604081905261002f916100b1565b61003833610061565b6001600160a01b031660a05273694aa1769357215de4fac081bf1f309adc3253066080526100e1565b600080546001600160a01b038381166001600160a01b0319831681178455604051919092169283917f8be0079c531659141344cd1fd0a4f28419497f9722a3daafe3b4186f6b6457e09190a35050565b6000602082840312156100c357600080fd5b81516001600160a01b03811681146100da57600080fd5b9392505050565b60805160a051610f8d6101146000396000818161013e01526103030152600081816103c1015261074b0152610f8d6000f3fe6080604052600436106100a65760003560e01c8063098048e9146101fb578063166ee7671461022e5780633ccfd60b1461025057806341976e091461026557806351b92ffe146102855780635b7f415c1461029a578063715018a6146102af5780638da5cb5b146102c45780639608b232146102f1578063bd9c47e314610325578063bea4dfb51461035b578063ec6cc0cc14610370578063f2fde38b1461039057600080fd5b366101f657346000036100cc57604051632917f61b60e21b815260040160405180910390fd5b60006100d7346103b0565b9050600081116101275760405162461bcd60e51b8152602060048201526016602482015275151bdad95b88185b5bdd5b9d081d1bdbc81cdb585b1b60521b60448201526064015b60405180910390fd5b604051630f38ca0d60e31b81526001600160a01b037f000000000000000000000000000000000000000000000000000000000000000016906379c65068906101759033908590600401610c4a565b6020604051808303816000875af1158015610194573d6000803e3d6000fd5b505050506040513d601f19601f820116820180604052508101906101b89190610c63565b50604080513481526020810183905233917f8fafebcaf9d154343dad25669bfa277f4fbacd7ac6b0c4fed522580e040a0f33910160405180910390a2005b600080fd5b34801561020757600080fd5b5061021b610216366004610c7c565b6103b0565b6040519081526020015b60405180910390f35b34801561023a57600080fd5b5061024e610249366004610cb1565b6104a6565b005b34801561025c57600080fd5b5061024e6104dc565b34801561027157600080fd5b5061021b610280366004610ce4565b61058b565b34801561029157600080fd5b5061021b610704565b3480156102a657600080fd5b5061021b601281565b3480156102bb57600080fd5b5061024e61071e565b3480156102d057600080fd5b506102d9610732565b6040516001600160a01b039091168152602001610225565b3480156102fd57600080fd5b506102d97f000000000000000000000000000000000000000000000000000000000000000081565b34801561033157600080fd5b506102d9610340366004610ce4565b6001602052600090815260409020546001600160a01b031681565b34801561036757600080fd5b5061021b610741565b34801561037c57600080fd5b5061021b61038b366004610d06565b6108b2565b34801561039c57600080fd5b5061024e6103ab366004610ce4565b610b22565b6000806103bb610741565b905060007f00000000000000000000000000000000000000000000000000000000000000006001600160a01b031663313ce5676040518163ffffffff1660e01b8152600401602060405180830381865afa15801561041d573d6000803e3d6000fd5b505050506040513d601f19601f820116820180604052508101906104419190610d42565b9050600061045082600a610e61565b61045a8487610e70565b6104649190610e87565b90506104726012600a610ea9565b61047d906002610e70565b6104896012600a610ea9565b6104939083610e70565b61049d9190610e87565b95945050505050565b6104ae610b9b565b6001600160a01b03918216600090815260016020526040902080546001600160a01b03191691909216179055565b6104e4610b9b565b60006104ee610732565b6001600160a01b03164760405160006040518083038185875af1925050503d8060008114610538576040519150601f19603f3d011682016040523d82523d6000602084013e61053d565b606091505b505090508061055f576040516355bbfb9f60e11b815260040160405180910390fd5b6040517fd7e29180ed912c1b05c7de92c52d7d4421d50c763bb288a99d28f035576eea6990600090a150565b6001600160a01b03808216600090815260016020526040812054909116806105c6576040516338decaf160e01b815260040160405180910390fd5b600080826001600160a01b031663feaf968c6040518163ffffffff1660e01b815260040160a060405180830381865afa158015610607573d6000803e3d6000fd5b505050506040513d601f19601f8201168201806040525081019061062b9190610ecc565b50935050925050600082136106535760405163cf9eacc760e01b815260040160405180910390fd5b806000036106745760405163065568a360e01b815260040160405180910390fd5b6000836001600160a01b031663313ce5676040518163ffffffff1660e01b8152600401602060405180830381865afa1580156106b4573d6000803e3d6000fd5b505050506040513d601f19601f820116820180604052508101906106d89190610d42565b90506106e5816012610f1c565b6106f090600a610e61565b6106fa9084610e70565b9695505050505050565b6107106012600a610ea9565b61071b906002610e70565b81565b610726610b9b565b6107306000610bfa565b565b6000546001600160a01b031690565b60008060008060007f00000000000000000000000000000000000000000000000000000000000000006001600160a01b031663feaf968c6040518163ffffffff1660e01b815260040160a060405180830381865afa1580156107a7573d6000803e3d6000fd5b505050506040513d601f19601f820116820180604052508101906107cb9190610ecc565b945094505093509350600083136108145760405162461bcd60e51b815260206004820152600d60248201526c496e76616c696420707269636560981b604482015260640161011e565b836001600160501b0316816001600160501b031610156108645760405162461bcd60e51b815260206004820152600b60248201526a5374616c6520707269636560a81b604482015260640161011e565b600082116108a95760405162461bcd60e51b8152602060048201526012602482015271526f756e64206e6f7420636f6d706c65746560701b604482015260640161011e565b50909392505050565b60008082116109035760405162461bcd60e51b815260206004820181905260248201527f416d6f756e74206d7573742062652067726561746572207468616e207a65726f604482015260640161011e565b6040516323b872dd60e01b8152336004820152306024820152604481018390526001600160a01b038516906323b872dd906064016020604051808303816000875af1158015610956573d6000803e3d6000fd5b505050506040513d601f19601f8201168201806040525081019061097a9190610f35565b5060006109868561058b565b905060006109938561058b565b90506000866001600160a01b031663313ce5676040518163ffffffff1660e01b8152600401602060405180830381865afa1580156109d5573d6000803e3d6000fd5b505050506040513d601f19601f820116820180604052508101906109f99190610d42565b90506000866001600160a01b031663313ce5676040518163ffffffff1660e01b8152600401602060405180830381865afa158015610a3b573d6000803e3d6000fd5b505050506040513d601f19601f82011682018060405250810190610a5f9190610d42565b90506000610a6e83600a610e61565b610a789085610e70565b610a8383600a610e61565b610a8d878a610e70565b610a979190610e70565b610aa19190610e87565b60405163a9059cbb60e01b81529091506001600160a01b0389169063a9059cbb90610ad29033908590600401610c4a565b6020604051808303816000875af1158015610af1573d6000803e3d6000fd5b505050506040513d601f19601f82011682018060405250810190610b159190610f35565b5098975050505050505050565b610b2a610b9b565b6001600160a01b038116610b8f5760405162461bcd60e51b815260206004820152602660248201527f4f776e61626c653a206e6577206f776e657220697320746865207a65726f206160448201526564647265737360d01b606482015260840161011e565b610b9881610bfa565b50565b33610ba4610732565b6001600160a01b0316146107305760405162461bcd60e51b815260206004820181905260248201527f4f776e61626c653a2063616c6c6572206973206e6f7420746865206f776e6572604482015260640161011e565b600080546001600160a01b038381166001600160a01b0319831681178455604051919092169283917f8be0079c531659141344cd1fd0a4f28419497f9722a3daafe3b4186f6b6457e09190a35050565b6001600160a01b03929092168252602082015260400190565b600060208284031215610c7557600080fd5b5051919050565b600060208284031215610c8e57600080fd5b5035919050565b80356001600160a01b0381168114610cac57600080fd5b919050565b60008060408385031215610cc457600080fd5b610ccd83610c95565b9150610cdb60208401610c95565b90509250929050565b600060208284031215610cf657600080fd5b610cff82610c95565b9392505050565b600080600060608486031215610d1b57600080fd5b610d2484610c95565b9250610d3260208501610c95565b9150604084013590509250925092565b600060208284031215610d5457600080fd5b815160ff81168114610cff57600080fd5b634e487b7160e01b600052601160045260246000fd5b600181815b80851115610db6578160001904821115610d9c57610d9c610d65565b80851615610da957918102915b93841c9390800290610d80565b509250929050565b600082610dcd57506001610e5b565b81610dda57506000610e5b565b8160018114610df05760028114610dfa57610e16565b6001915050610e5b565b60ff841115610e0b57610e0b610d65565b50506001821b610e5b565b5060208310610133831016604e8410600b8410161715610e39575081810a610e5b565b610e438383610d7b565b8060001904821115610e5757610e57610d65565b0290505b92915050565b6000610cff60ff841683610dbe565b8082028115828204841417610e5b57610e5b610d65565b600082610ea457634e487b7160e01b600052601260045260246000fd5b500490565b6000610cff8383610dbe565b80516001600160501b0381168114610cac57600080fd5b600080600080600060a08688031215610ee457600080fd5b610eed86610eb5565b9450602086015193506040860151925060608601519150610f1060808701610eb5565b90509295509295909350565b60ff8281168282160390811115610e5b57610e5b610d65565b600060208284031215610f4757600080fd5b81518015158114610cff57600080fdfea2646970667358221220638e010ab9f5c2e2853059d8a228e60b8c72a424cafbdd3255c74cd6b847af5064736f6c63430008180033",
  "linkReferences": {},
  "deployedLinkReferences": {}
}