{
  "_format": "hh-sol-artifact-1",
  "contractName": "MyToken",
  "sourceName": "contracts/Token.sol",
  "abi": [
    {
      "inputs": [],
      "stateMutability": "nonpayable",
      "type": "constructor"
    },
    {
      "anonymous": false,
      "inputs": [
        {
          "indexed": true,
          "internalType": "address",
          "name": "owner",
          "type": "address"
        },
        {
          "indexed": true,
          "internalType": "address",
          "name": "spender",
          "type": "address"
        },
        {
          "indexed": false,
          "internalType": "uint256",
          "name": "value",
          "type": "uint256"
        }
      ],
      "name": "Approval",
      "type": "event"
    },
    {
      "anonymous": false,
      "inputs": [
        {
          "indexed": true,
          "internalType": "address",
          "name": "_user",
          "type": "address"
        },
        {
          "indexed": false,
          "internalType": "uint256",
          "name": "_amount",
          "type": "uint256"
        }
      ],
      "name": "BURNSUCCESS",
      "type": "event"
    },
    {
      "anonymous": false,
      "inputs": [
        {
          "indexed": true,
          "internalType": "address",
          "name": "_user",
          "type": "address"
        },
        {
          "indexed": false,
          "internalType": "uint256",
          "name": "_amount",
          "type": "uint256"
        }
      ],
      "name": "MINTSUCCESS",
      "type": "event"
    },
    {
      "anonymous": false,
      "inputs": [
        {
          "indexed": true,
          "internalType": "address",
          "name": "previousOwner",
          "type": "address"
        },
        {
          "indexed": true,
          "internalType": "address",
          "name": "newOwner",
          "type": "address"
        }
      ],
      "name": "OwnershipTransferred",
      "type": "event"
    },
    {
      "anonymous": false,
      "inputs": [
        {
          "indexed": true,
          "internalType": "bytes32",
          "name": "role",
          "type": "bytes32"
        },
        {
          "indexed": true,
          "internalType": "bytes32",
          "name": "previousAdminRole",
          "type": "bytes32"
        },
        {
          "indexed": true,
          "internalType": "bytes32",
          "name": "newAdminRole",
          "type": "bytes32"
        }
      ],
      "name": "RoleAdminChanged",
      "type": "event"
    },
    {
      "anonymous": false,
      "inputs": [
        {
          "indexed": true,
          "internalType": "bytes32",
          "name": "role",
          "type": "bytes32"
        },
        {
          "indexed": true,
          "internalType": "address",
          "name": "account",
          "type": "address"
        },
        {
          "indexed": true,
          "internalType": "address",
          "name": "sender",
          "type": "address"
        }
      ],
      "name": "RoleGranted",
      "type": "event"
    },
    {
      "anonymous": false,
      "inputs": [
        {
          "indexed": true,
          "internalType": "bytes32",
          "name": "role",
          "type": "bytes32"
        },
        {
          "indexed": true,
          "internalType": "address",
          "name": "account",
          "type": "address"
        },
        {
          "indexed": true,
          "internalType": "address",
          "name": "sender",
          "type": "address"
        }
      ],
      "name": "RoleRevoked",
      "type": "event"
    },
    {
      "anonymous": false,
      "inputs": [
        {
          "indexed": true,
          "internalType": "address",
          "name": "from",
          "type": "address"
        },
        {
          "indexed": true,
          "internalType": "address",
          "name": "to",
          "type": "address"
        },
        {
          "indexed": false,
          "internalType": "uint256",
          "name": "value",
          "type": "uint256"
        }
      ],
      "name": "Transfer",
      "type": "event"
    },
    {
      "inputs": [],
      "name": "DEFAULT_ADMIN_ROLE",
      "outputs": [
        {
          "internalType": "bytes32",
          "name": "",
          "type": "bytes32"
        }
      ],
      "stateMutability": "view",
      "type": "function"
    },
    {
      "inputs": [],
      "name": "INITIAL_SUPPLY",
      "outputs": [
        {
          "internalType": "uint256",
          "name": "",
          "type": "uint256"
        }
      ],
      "stateMutability": "view",
      "type": "function"
    },
    {
      "inputs": [],
      "name": "MAX_SUPPLY",
      "outputs": [
        {
          "internalType": "uint256",
          "name": "",
          "type": "uint256"
        }
      ],
      "stateMutability": "view",
      "type": "function"
    },
    {
      "inputs": [],
      "name": "MINTER_ROLE",
      "outputs": [
        {
          "internalType": "bytes32",
          "name": "",
          "type": "bytes32"
        }
      ],
      "stateMutability": "view",
      "type": "function"
    },
    {
      "inputs": [
        {
          "internalType": "address",
          "name": "owner",
          "type": "address"
        },
        {
          "internalType": "address",
          "name": "spender",
          "type": "address"
        }
      ],
      "name": "allowance",
      "outputs": [
        {
          "internalType": "uint256",
          "name": "",
          "type": "uint256"
        }
      ],
      "stateMutability": "view",
      "type": "function"
    },
    {
      "inputs": [
        {
          "internalType": "address",
          "name": "spender",
          "type": "address"
        },
        {
          "internalType": "uint256",
          "name": "amount",
          "type": "uint256"
        }
      ],
      "name": "approve",
      "outputs": [
        {
          "internalType": "bool",
          "name": "",
          "type": "bool"
        }
      ],
      "stateMutability": "nonpayable",
      "type": "function"
    },
    {
      "inputs": [
        {
          "internalType": "address",
          "name": "account",
          "type": "address"
        }
      ],
      "name": "balanceOf",
      "outputs": [
        {
          "internalType": "uint256",
          "name": "",
          "type": "uint256"
        }
      ],
      "stateMutability": "view",
      "type": "function"
    },
    {
      "inputs": [
        {
          "internalType": "address",
          "name": "_user",
          "type": "address"
        },
        {
          "internalType": "uint256",
          "name": "_amount",
          "type": "uint256"
        }
      ],
      "name": "burnToken",
      "outputs": [
        {
          "internalType": "bool",
          "name": "",
          "type": "bool"
        }
      ],
      "stateMutability": "nonpayable",
      "type": "function"
    },
    {
      "inputs": [],
      "name": "decimals",
      "outputs": [
        {
          "internalType": "uint8",
          "name": "",
          "type": "uint8"
        }
      ],
      "stateMutability": "view",
      "type": "function"
    },
    {
      "inputs": [
        {
          "internalType": "address",
          "name": "spender",
          "type": "address"
        },
        {
          "internalType": "uint256",
          "name": "subtractedValue",
          "type": "uint256"
        }
      ],
      "name": "decreaseAllowance",
      "outputs": [
        {
          "internalType": "bool",
          "name": "",
          "type": "bool"
        }
      ],
      "stateMutability": "nonpayable",
      "type": "function"
    },
    {
      "inputs": [
        {
          "internalType": "bytes32",
          "name": "role",
          "type": "bytes32"
        }
      ],
      "name": "getRoleAdmin",
      "outputs": [
        {
          "internalType": "bytes32",
          "name": "",
          "type": "bytes32"
        }
      ],
      "stateMutability": "view",
      "type": "function"
    },
    {
      "inputs": [
        {
          "internalType": "bytes32",
          "name": "role",
          "type": "bytes32"
        },
        {
          "internalType": "address",
          "name": "account",
          "type": "address"
        }
      ],
      "name": "grantRole",
      "outputs": [],
      "stateMutability": "nonpayable",
      "type": "function"
    },
    {
      "inputs": [
        {
          "internalType": "bytes32",
          "name": "role",
          "type": "bytes32"
        },
        {
          "internalType": "address",
          "name": "account",
          "type": "address"
        }
      ],
      "name": "hasRole",
      "outputs": [
        {
          "internalType": "bool",
          "name": "",
          "type": "bool"
        }
      ],
      "stateMutability": "view",
      "type": "function"
    },
    {
      "inputs": [
        {
          "internalType": "address",
          "name": "spender",
          "type": "address"
        },
        {
          "internalType": "uint256",
          "name": "addedValue",
          "type": "uint256"
        }
      ],
      "name": "increaseAllowance",
      "outputs": [
        {
          "internalType": "bool",
          "name": "",
          "type": "bool"
        }
      ],
      "stateMutability": "nonpayable",
      "type": "function"
    },
    {
      "inputs": [
        {
          "internalType": "address",
          "name": "_user",
          "type": "address"
        },
        {
          "internalType": "uint256",
          "name": "_amount",
          "type": "uint256"
        }
      ],
      "name": "mintToken",
      "outputs": [
        {
          "internalType": "uint256",
          "name": "",
          "type": "uint256"
        }
      ],
      "stateMutability": "nonpayable",
      "type": "function"
    },
    {
      "inputs": [],
      "name": "name",
      "outputs": [
        {
          "internalType": "string",
          "name": "",
          "type": "string"
        }
      ],
      "stateMutability": "view",
      "type": "function"
    },
    {
      "inputs": [],
      "name": "owner",
      "outputs": [
        {
          "internalType": "address",
          "name": "",
          "type": "address"
        }
      ],
      "stateMutability": "view",
      "type": "function"
    },
    {
      "inputs": [],
      "name": "renounceOwnership",
      "outputs": [],
      "stateMutability": "nonpayable",
      "type": "function"
    },
    {
      "inputs": [
        {
          "internalType": "bytes32",
          "name": "role",
          "type": "bytes32"
        },
        {
          "internalType": "address",
          "name": "account",
          "type": "address"
        }
      ],
      "name": "renounceRole",
      "outputs": [],
      "stateMutability": "nonpayable",
      "type": "function"
    },
    {
      "inputs": [
        {
          "internalType": "bytes32",
          "name": "role",
          "type": "bytes32"
        },
        {
          "internalType": "address",
          "name": "account",
          "type": "address"
        }
      ],
      "name": "revokeRole",
      "outputs": [],
      "stateMutability": "nonpayable",
      "type": "function"
    },
    {
      "inputs": [
        {
          "internalType": "bytes4",
          "name": "interfaceId",
          "type": "bytes4"
        }
      ],
      "name": "supportsInterface",
      "outputs": [
        {
          "internalType": "bool",
          "name": "",
          "type": "bool"
        }
      ],
      "stateMutability": "view",
      "type": "function"
    },
    {
      "inputs": [],
      "name": "symbol",
      "outputs": [
        {
          "internalType": "string",
          "name": "",
          "type": "string"
        }
      ],
      "stateMutability": "view",
      "type": "function"
    },
    {
      "inputs": [],
      "name": "totalSupply",
      "outputs": [
        {
          "internalType": "uint256",
          "name": "",
          "type": "uint256"
        }
      ],
      "stateMutability": "view",
      "type": "function"
    },
    {
      "inputs": [
        {
          "internalType": "address",
          "name": "to",
          "type": "address"
        },
        {
          "internalType": "uint256",
          "name": "amount",
          "type": "uint256"
        }
      ],
      "name": "transfer",
      "outputs": [
        {
          "internalType": "bool",
          "name": "",
          "type": "bool"
        }
      ],
      "stateMutability": "nonpayable",
      "type": "function"
    },
    {
      "inputs": [
        {
          "internalType": "address",
          "name": "from",
          "type": "address"
        },
        {
          "internalType": "address",
          "name": "to",
          "type": "address"
        },
        {
          "internalType": "uint256",
          "name": "amount",
          "type": "uint256"
        }
      ],
      "name": "transferFrom",
      "outputs": [
        {
          "internalType": "bool",
          "name": "",
          "type": "bool"
        }
      ],
      "stateMutability": "nonpayable",
      "type": "function"
    },
    {
      "inputs": [
        {
          "internalType": "address",
          "name": "newOwner",
          "type": "address"
        }
      ],
      "name": "transferOwnership",
      "outputs": [],
      "stateMutability": "nonpayable",
      "type": "function"
    }
  ],
  "bytecode": "0x60806040523480156200001157600080fd5b506040518060400160405280600781526020016626bcaa37b5b2b760c91b815250604051806040016040528060038152602001624d544b60e81b81525081600390816200005f91906200035f565b5060046200006e82826200035f565b5050506200008b62000085620000e060201b60201c565b620000e4565b6200009860003362000136565b620000c47f9f2df0fed2c77648de5860a4cc508cd0818c85b8b8a1ab4ceeef8d981c8956a63362000136565b620000da3369152d02c7e14af6800000620001c1565b6200044d565b3390565b600680546001600160a01b038381166001600160a01b0319831681179093556040519116919082907f8be0079c531659141344cd1fd0a4f28419497f9722a3daafe3b4186f6b6457e090600090a35050565b62000142828262000287565b620001bd5760008281526005602090815260408083206001600160a01b03851684529091529020805460ff191660011790556200017c3390565b6001600160a01b0316816001600160a01b0316837f2f8788117e7eff1d82e926ec794901d17c78024a50270940304540a733656f0d60405160405180910390a45b5050565b6001600160a01b0382166200021c5760405162461bcd60e51b815260206004820152601f60248201527f45524332303a206d696e7420746f20746865207a65726f206164647265737300604482015260640160405180910390fd5b80600260008282546200023091906200042b565b90915550506001600160a01b038216600081815260208181526040808320805486019055518481527fddf252ad1be2c89b69c2b068fc378daa952ba7f163c4a11628f55a4df523b3ef910160405180910390a35050565b60008281526005602090815260408083206001600160a01b038516845290915290205460ff165b92915050565b505050565b634e487b7160e01b600052604160045260246000fd5b600181811c90821680620002e457607f821691505b6020821081036200030557634e487b7160e01b600052602260045260246000fd5b50919050565b601f821115620002b4576000816000526020600020601f850160051c81016020861015620003365750805b601f850160051c820191505b81811015620003575782815560010162000342565b505050505050565b81516001600160401b038111156200037b576200037b620002b9565b62000393816200038c8454620002cf565b846200030b565b602080601f831160018114620003cb5760008415620003b25750858301515b600019600386901b1c1916600185901b17855562000357565b600085815260208120601f198616915b82811015620003fc57888601518255948401946001909101908401620003db565b50858210156200041b5787850151600019600388901b60f8161c191681555b5050505050600190811b01905550565b80820180821115620002ae57634e487b7160e01b600052601160045260246000fd5b611440806200045d6000396000f3fe608060405234801561001057600080fd5b506004361061014e5760003560e01c8063715018a6116100be578063715018a61461026b57806379c65068146102735780638da5cb5b1461028657806391d14854146102a157806395d89b41146102b4578063a217fddf146102bc578063a457c2d7146102c4578063a9059cbb146102d7578063d1df306c146102ea578063d5391393146102fd578063d547741f14610324578063dd62ed3e14610337578063f2fde38b1461034a57600080fd5b806301ffc9a71461015357806306fdde031461017b578063095ea7b31461019057806318160ddd146101a357806323b872dd146101b5578063248a9ca3146101c85780632f2ff15d146101eb5780632ff2e9dc14610200578063313ce5671461021157806332cb6b0c1461022057806336568abe14610232578063395093511461024557806370a0823114610258575b600080fd5b610166610161366004611131565b61035d565b60405190151581526020015b60405180910390f35b610183610394565b604051610172919061117f565b61016661019e3660046111ce565b610426565b6002545b604051908152602001610172565b6101666101c33660046111f8565b61043e565b6101a76101d6366004611234565b60009081526005602052604090206001015490565b6101fe6101f936600461124d565b610462565b005b6101a769152d02c7e14af680000081565b60405160128152602001610172565b6101a76a52b7d2dcc80cd2e400000081565b6101fe61024036600461124d565b61048c565b6101666102533660046111ce565b61050f565b6101a7610266366004611279565b610531565b6101fe61054c565b6101a76102813660046111ce565b610560565b6006546040516001600160a01b039091168152602001610172565b6101666102af36600461124d565b610648565b610183610673565b6101a7600081565b6101666102d23660046111ce565b610682565b6101666102e53660046111ce565b6106fd565b6101666102f83660046111ce565b61070b565b6101a77f9f2df0fed2c77648de5860a4cc508cd0818c85b8b8a1ab4ceeef8d981c8956a681565b6101fe61033236600461124d565b6107ba565b6101a7610345366004611294565b6107df565b6101fe610358366004611279565b61080a565b60006001600160e01b03198216637965db0b60e01b148061038e57506301ffc9a760e01b6001600160e01b03198316145b92915050565b6060600380546103a3906112be565b80601f01602080910402602001604051908101604052809291908181526020018280546103cf906112be565b801561041c5780601f106103f15761010080835404028352916020019161041c565b820191906000526020600020905b8154815290600101906020018083116103ff57829003601f168201915b5050505050905090565b600033610434818585610883565b5060019392505050565b60003361044c8582856109a7565b610457858585610a21565b506001949350505050565b60008281526005602052604090206001015461047d81610bb3565b6104878383610bbd565b505050565b6001600160a01b03811633146105015760405162461bcd60e51b815260206004820152602f60248201527f416363657373436f6e74726f6c3a2063616e206f6e6c792072656e6f756e636560448201526e103937b632b9903337b91039b2b63360891b60648201526084015b60405180910390fd5b61050b8282610c43565b5050565b60003361043481858561052283836107df565b61052c919061130e565b610883565b6001600160a01b031660009081526020819052604090205490565b610554610caa565b61055e6000610d04565b565b60007f9f2df0fed2c77648de5860a4cc508cd0818c85b8b8a1ab4ceeef8d981c8956a661058c81610bb3565b6a52b7d2dcc80cd2e4000000836105a260025490565b6105ac919061130e565b11156105f05760405162461bcd60e51b81526020600482015260136024820152721350560814d55414131648115610d151511151606a1b60448201526064016104f8565b6105fa8484610d56565b836001600160a01b03167fd85c0d5c4ba3d8c068456e890fa6291874fa9f6e11ed8c2f6739d885a5d740038460405161063591815260200190565b60405180910390a2600254949350505050565b60009182526005602090815260408084206001600160a01b0393909316845291905290205460ff1690565b6060600480546103a3906112be565b6000338161069082866107df565b9050838110156106f05760405162461bcd60e51b815260206004820152602560248201527f45524332303a2064656372656173656420616c6c6f77616e63652062656c6f77604482015264207a65726f60d81b60648201526084016104f8565b6104578286868403610883565b600033610434818585610a21565b6000610715610caa565b8161071f84610531565b10156107645760405162461bcd60e51b8152602060048201526014602482015273494e53554646494349454e542042414c414e434560601b60448201526064016104f8565b61076e8383610e03565b826001600160a01b03167f3a6c38495f6227f1024f05769dd907e355dc2876482df2f30191e2d1a5a8aa7d836040516107a991815260200190565b60405180910390a250600192915050565b6000828152600560205260409020600101546107d581610bb3565b6104878383610c43565b6001600160a01b03918216600090815260016020908152604080832093909416825291909152205490565b610812610caa565b6001600160a01b0381166108775760405162461bcd60e51b815260206004820152602660248201527f4f776e61626c653a206e6577206f776e657220697320746865207a65726f206160448201526564647265737360d01b60648201526084016104f8565b61088081610d04565b50565b6001600160a01b0383166108e55760405162461bcd60e51b8152602060048201526024808201527f45524332303a20617070726f76652066726f6d20746865207a65726f206164646044820152637265737360e01b60648201526084016104f8565b6001600160a01b0382166109465760405162461bcd60e51b815260206004820152602260248201527f45524332303a20617070726f766520746f20746865207a65726f206164647265604482015261737360f01b60648201526084016104f8565b6001600160a01b0383811660008181526001602090815260408083209487168084529482529182902085905590518481527f8c5be1e5ebec7d5bd14f71427d1e84f3dd0314c0f7b2291e5b200ac8c7c3b925910160405180910390a3505050565b60006109b384846107df565b90506000198114610a1b5781811015610a0e5760405162461bcd60e51b815260206004820152601d60248201527f45524332303a20696e73756666696369656e7420616c6c6f77616e636500000060448201526064016104f8565b610a1b8484848403610883565b50505050565b6001600160a01b038316610a855760405162461bcd60e51b815260206004820152602560248201527f45524332303a207472616e736665722066726f6d20746865207a65726f206164604482015264647265737360d81b60648201526084016104f8565b6001600160a01b038216610ae75760405162461bcd60e51b815260206004820152602360248201527f45524332303a207472616e7366657220746f20746865207a65726f206164647260448201526265737360e81b60648201526084016104f8565b6001600160a01b03831660009081526020819052604090205481811015610b5f5760405162461bcd60e51b815260206004820152602660248201527f45524332303a207472616e7366657220616d6f756e7420657863656564732062604482015265616c616e636560d01b60648201526084016104f8565b6001600160a01b03848116600081815260208181526040808320878703905593871680835291849020805487019055925185815290926000805160206113eb833981519152910160405180910390a3610a1b565b6108808133610f23565b610bc78282610648565b61050b5760008281526005602090815260408083206001600160a01b03851684529091529020805460ff19166001179055610bff3390565b6001600160a01b0316816001600160a01b0316837f2f8788117e7eff1d82e926ec794901d17c78024a50270940304540a733656f0d60405160405180910390a45050565b610c4d8282610648565b1561050b5760008281526005602090815260408083206001600160a01b0385168085529252808320805460ff1916905551339285917ff6391f5c32d9c69d2a47ea670b442974b53935d1edc7fd64eb21e047a839171b9190a45050565b6006546001600160a01b0316331461055e5760405162461bcd60e51b815260206004820181905260248201527f4f776e61626c653a2063616c6c6572206973206e6f7420746865206f776e657260448201526064016104f8565b600680546001600160a01b038381166001600160a01b0319831681179093556040519116919082907f8be0079c531659141344cd1fd0a4f28419497f9722a3daafe3b4186f6b6457e090600090a35050565b6001600160a01b038216610dac5760405162461bcd60e51b815260206004820152601f60248201527f45524332303a206d696e7420746f20746865207a65726f20616464726573730060448201526064016104f8565b8060026000828254610dbe919061130e565b90915550506001600160a01b038216600081815260208181526040808320805486019055518481526000805160206113eb833981519152910160405180910390a35050565b6001600160a01b038216610e635760405162461bcd60e51b815260206004820152602160248201527f45524332303a206275726e2066726f6d20746865207a65726f206164647265736044820152607360f81b60648201526084016104f8565b6001600160a01b03821660009081526020819052604090205481811015610ed75760405162461bcd60e51b815260206004820152602260248201527f45524332303a206275726e20616d6f756e7420657863656564732062616c616e604482015261636560f01b60648201526084016104f8565b6001600160a01b0383166000818152602081815260408083208686039055600280548790039055518581529192916000805160206113eb833981519152910160405180910390a3505050565b610f2d8282610648565b61050b57610f3a81610f7c565b610f45836020610f8e565b604051602001610f56929190611321565b60408051601f198184030181529082905262461bcd60e51b82526104f89160040161117f565b606061038e6001600160a01b03831660145b60606000610f9d836002611390565b610fa890600261130e565b67ffffffffffffffff811115610fc057610fc06113a7565b6040519080825280601f01601f191660200182016040528015610fea576020820181803683370190505b509050600360fc1b81600081518110611005576110056113bd565b60200101906001600160f81b031916908160001a905350600f60fb1b81600181518110611034576110346113bd565b60200101906001600160f81b031916908160001a9053506000611058846002611390565b61106390600161130e565b90505b60018111156110db576f181899199a1a9b1b9c1cb0b131b232b360811b85600f1660108110611097576110976113bd565b1a60f81b8282815181106110ad576110ad6113bd565b60200101906001600160f81b031916908160001a90535060049490941c936110d4816113d3565b9050611066565b50831561112a5760405162461bcd60e51b815260206004820181905260248201527f537472696e67733a20686578206c656e67746820696e73756666696369656e7460448201526064016104f8565b9392505050565b60006020828403121561114357600080fd5b81356001600160e01b03198116811461112a57600080fd5b60005b8381101561117657818101518382015260200161115e565b50506000910152565b602081526000825180602084015261119e81604085016020870161115b565b601f01601f19169190910160400192915050565b80356001600160a01b03811681146111c957600080fd5b919050565b600080604083850312156111e157600080fd5b6111ea836111b2565b946020939093013593505050565b60008060006060848603121561120d57600080fd5b611216846111b2565b9250611224602085016111b2565b9150604084013590509250925092565b60006020828403121561124657600080fd5b5035919050565b6000806040838503121561126057600080fd5b82359150611270602084016111b2565b90509250929050565b60006020828403121561128b57600080fd5b61112a826111b2565b600080604083850312156112a757600080fd5b6112b0836111b2565b9150611270602084016111b2565b600181811c908216806112d257607f821691505b6020821081036112f257634e487b7160e01b600052602260045260246000fd5b50919050565b634e487b7160e01b600052601160045260246000fd5b8082018082111561038e5761038e6112f8565b76020b1b1b2b9b9a1b7b73a3937b61d1030b1b1b7bab73a1604d1b81526000835161135381601785016020880161115b565b7001034b99036b4b9b9b4b733903937b6329607d1b601791840191820152835161138481602884016020880161115b565b01602801949350505050565b808202811582820484141761038e5761038e6112f8565b634e487b7160e01b600052604160045260246000fd5b634e487b7160e01b600052603260045260246000fd5b6000816113e2576113e26112f8565b50600019019056feddf252ad1be2c89b69c2b068fc378daa952ba7f163c4a11628f55a4df523b3efa2646970667358221220a27e03a7ba04abf819db151763a57c5ab67ffa98e98932fc863fc257a0debe6864736f6c63430008180033",
  "linkReferences": {},
  "deployedLinkReferences": {}
}