{
  "_format": "hh-sol-artifact-1",
  "contractName": "MarketPlace",
  "sourceName": "contracts/MarketPlace.sol",
  "abi": [
    {
      "inputs": [],
      "stateMutability": "nonpayable",
      "type": "constructor"
    },
    {
      "anonymous": false,
      "inputs": [
        {
          "indexed": true,
          "internalType": "address",
          "name": "owner",
          "type": "address"
        },
        {
          "indexed": true,
          "internalType": "address",
          "name": "approved",
          "type": "address"
        },
        {
          "indexed": true,
          "internalType": "uint256",
          "name": "tokenId",
          "type": "uint256"
        }
      ],
      "name": "Approval",
      "type": "event"
    },
    {
      "anonymous": false,
      "inputs": [
        {
          "indexed": true,
          "internalType": "address",
          "name": "owner",
          "type": "address"
        },
        {
          "indexed": true,
          "internalType": "address",
          "name": "operator",
          "type": "address"
        },
        {
          "indexed": false,
          "internalType": "bool",
          "name": "approved",
          "type": "bool"
        }
      ],
      "name": "ApprovalForAll",
      "type": "event"
    },
    {
      "anonymous": false,
      "inputs": [
        {
          "indexed": false,
          "internalType": "uint256",
          "name": "_fromTokenId",
          "type": "uint256"
        },
        {
          "indexed": false,
          "internalType": "uint256",
          "name": "_toTokenId",
          "type": "uint256"
        }
      ],
      "name": "BatchMetadataUpdate",
      "type": "event"
    },
    {
      "anonymous": false,
      "inputs": [
        {
          "indexed": false,
          "internalType": "uint256",
          "name": "_tokenId",
          "type": "uint256"
        }
      ],
      "name": "MetadataUpdate",
      "type": "event"
    },
    {
      "anonymous": false,
      "inputs": [
        {
          "indexed": true,
          "internalType": "uint256",
          "name": "tokenId",
          "type": "uint256"
        },
        {
          "indexed": true,
          "internalType": "address",
          "name": "buyer",
          "type": "address"
        },
        {
          "indexed": false,
          "internalType": "uint256",
          "name": "price",
          "type": "uint256"
        }
      ],
      "name": "NFTBought",
      "type": "event"
    },
    {
      "anonymous": false,
      "inputs": [
        {
          "indexed": true,
          "internalType": "uint256",
          "name": "tokenId",
          "type": "uint256"
        },
        {
          "indexed": false,
          "internalType": "uint256",
          "name": "price",
          "type": "uint256"
        },
        {
          "indexed": true,
          "internalType": "address",
          "name": "owner",
          "type": "address"
        }
      ],
      "name": "NFTListed",
      "type": "event"
    },
    {
      "anonymous": false,
      "inputs": [
        {
          "indexed": true,
          "internalType": "uint256",
          "name": "tokenId",
          "type": "uint256"
        },
        {
          "indexed": false,
          "internalType": "string",
          "name": "name",
          "type": "string"
        },
        {
          "indexed": false,
          "internalType": "string",
          "name": "description",
          "type": "string"
        },
        {
          "indexed": false,
          "internalType": "string",
          "name": "tokenURI",
          "type": "string"
        },
        {
          "indexed": false,
          "internalType": "uint256",
          "name": "price",
          "type": "uint256"
        },
        {
          "indexed": true,
          "internalType": "address",
          "name": "owner",
          "type": "address"
        }
      ],
      "name": "NFTMinted",
      "type": "event"
    },
    {
      "anonymous": false,
      "inputs": [
        {
          "indexed": true,
          "internalType": "uint256",
          "name": "tokenId",
          "type": "uint256"
        },
        {
          "indexed": true,
          "internalType": "address",
          "name": "owner",
          "type": "address"
        }
      ],
      "name": "NFTUnlisted",
      "type": "event"
    },
    {
      "anonymous": false,
      "inputs": [
        {
          "indexed": true,
          "internalType": "address",
          "name": "previousOwner",
          "type": "address"
        },
        {
          "indexed": true,
          "internalType": "address",
          "name": "newOwner",
          "type": "address"
        }
      ],
      "name": "OwnershipTransferred",
      "type": "event"
    },
    {
      "anonymous": false,
      "inputs": [
        {
          "indexed": true,
          "internalType": "uint256",
          "name": "tokenId",
          "type": "uint256"
        },
        {
          "indexed": false,
          "internalType": "string",
          "name": "name",
          "type": "string"
        },
        {
          "indexed": false,
          "internalType": "string",
          "name": "description",
          "type": "string"
        },
        {
          "indexed": false,
          "internalType": "string",
          "name": "tokenURI",
          "type": "string"
        },
        {
          "indexed": false,
          "internalType": "uint256",
          "name": "price",
          "type": "uint256"
        },
        {
          "indexed": true,
          "internalType": "address",
          "name": "buyer",
          "type": "address"
        }
      ],
      "name": "PURCHASE_SUCCESS",
      "type": "event"
    },
    {
      "anonymous": false,
      "inputs": [
        {
          "indexed": true,
          "internalType": "address",
          "name": "from",
          "type": "address"
        },
        {
          "indexed": true,
          "internalType": "address",
          "name": "to",
          "type": "address"
        },
        {
          "indexed": true,
          "internalType": "uint256",
          "name": "tokenId",
          "type": "uint256"
        }
      ],
      "name": "Transfer",
      "type": "event"
    },
    {
      "inputs": [],
      "name": "MAX_SUPPLY",
      "outputs": [
        {
          "internalType": "uint256",
          "name": "",
          "type": "uint256"
        }
      ],
      "stateMutability": "view",
      "type": "function"
    },
    {
      "inputs": [
        {
          "internalType": "uint256",
          "name": "",
          "type": "uint256"
        }
      ],
      "name": "allNFTs",
      "outputs": [
        {
          "internalType": "uint256",
          "name": "tokenId",
          "type": "uint256"
        },
        {
          "internalType": "string",
          "name": "name",
          "type": "string"
        },
        {
          "internalType": "string",
          "name": "description",
          "type": "string"
        },
        {
          "internalType": "string",
          "name": "tokenURI",
          "type": "string"
        },
        {
          "internalType": "address payable",
          "name": "owner",
          "type": "address"
        },
        {
          "internalType": "uint256",
          "name": "price",
          "type": "uint256"
        },
        {
          "internalType": "bool",
          "name": "isListed",
          "type": "bool"
        }
      ],
      "stateMutability": "view",
      "type": "function"
    },
    {
      "inputs": [
        {
          "internalType": "address",
          "name": "to",
          "type": "address"
        },
        {
          "internalType": "uint256",
          "name": "tokenId",
          "type": "uint256"
        }
      ],
      "name": "approve",
      "outputs": [],
      "stateMutability": "nonpayable",
      "type": "function"
    },
    {
      "inputs": [
        {
          "internalType": "address",
          "name": "owner",
          "type": "address"
        }
      ],
      "name": "balanceOf",
      "outputs": [
        {
          "internalType": "uint256",
          "name": "",
          "type": "uint256"
        }
      ],
      "stateMutability": "view",
      "type": "function"
    },
    {
      "inputs": [
        {
          "internalType": "uint256",
          "name": "_tokenId",
          "type": "uint256"
        }
      ],
      "name": "buyNFT",
      "outputs": [],
      "stateMutability": "payable",
      "type": "function"
    },
    {
      "inputs": [],
      "name": "getAllNFTs",
      "outputs": [
        {
          "components": [
            {
              "internalType": "uint256",
              "name": "tokenId",
              "type": "uint256"
            },
            {
              "internalType": "string",
              "name": "name",
              "type": "string"
            },
            {
              "internalType": "string",
              "name": "description",
              "type": "string"
            },
            {
              "internalType": "string",
              "name": "tokenURI",
              "type": "string"
            },
            {
              "internalType": "address payable",
              "name": "owner",
              "type": "address"
            },
            {
              "internalType": "uint256",
              "name": "price",
              "type": "uint256"
            },
            {
              "internalType": "bool",
              "name": "isListed",
              "type": "bool"
            },
            {
              "internalType": "address[]",
              "name": "previousOwners",
              "type": "address[]"
            }
          ],
          "internalType": "struct MarketPlace.NFT_RWA[]",
          "name": "",
          "type": "tuple[]"
        }
      ],
      "stateMutability": "view",
      "type": "function"
    },
    {
      "inputs": [
        {
          "internalType": "uint256",
          "name": "tokenId",
          "type": "uint256"
        }
      ],
      "name": "getApproved",
      "outputs": [
        {
          "internalType": "address",
          "name": "",
          "type": "address"
        }
      ],
      "stateMutability": "view",
      "type": "function"
    },
    {
      "inputs": [],
      "name": "getListedNFTs",
      "outputs": [
        {
          "components": [
            {
              "internalType": "uint256",
              "name": "tokenId",
              "type": "uint256"
            },
            {
              "internalType": "string",
              "name": "name",
              "type": "string"
            },
            {
              "internalType": "string",
              "name": "description",
              "type": "string"
            },
            {
              "internalType": "string",
              "name": "tokenURI",
              "type": "string"
            },
            {
              "internalType": "address payable",
              "name": "owner",
              "type": "address"
            },
            {
              "internalType": "uint256",
              "name": "price",
              "type": "uint256"
            },
            {
              "internalType": "bool",
              "name": "isListed",
              "type": "bool"
            },
            {
              "internalType": "address[]",
              "name": "previousOwners",
              "type": "address[]"
            }
          ],
          "internalType": "struct MarketPlace.NFT_RWA[]",
          "name": "",
          "type": "tuple[]"
        }
      ],
      "stateMutability": "view",
      "type": "function"
    },
    {
      "inputs": [
        {
          "internalType": "address",
          "name": "_owner",
          "type": "address"
        }
      ],
      "name": "getNFTsByOwner",
      "outputs": [
        {
          "components": [
            {
              "internalType": "uint256",
              "name": "tokenId",
              "type": "uint256"
            },
            {
              "internalType": "string",
              "name": "name",
              "type": "string"
            },
            {
              "internalType": "string",
              "name": "description",
              "type": "string"
            },
            {
              "internalType": "string",
              "name": "tokenURI",
              "type": "string"
            },
            {
              "internalType": "address payable",
              "name": "owner",
              "type": "address"
            },
            {
              "internalType": "uint256",
              "name": "price",
              "type": "uint256"
            },
            {
              "internalType": "bool",
              "name": "isListed",
              "type": "bool"
            },
            {
              "internalType": "address[]",
              "name": "previousOwners",
              "type": "address[]"
            }
          ],
          "internalType": "struct MarketPlace.NFT_RWA[]",
          "name": "",
          "type": "tuple[]"
        }
      ],
      "stateMutability": "view",
      "type": "function"
    },
    {
      "inputs": [
        {
          "internalType": "address",
          "name": "owner",
          "type": "address"
        },
        {
          "internalType": "address",
          "name": "operator",
          "type": "address"
        }
      ],
      "name": "isApprovedForAll",
      "outputs": [
        {
          "internalType": "bool",
          "name": "",
          "type": "bool"
        }
      ],
      "stateMutability": "view",
      "type": "function"
    },
    {
      "inputs": [
        {
          "internalType": "uint256",
          "name": "_tokenId",
          "type": "uint256"
        }
      ],
      "name": "listNFT",
      "outputs": [
        {
          "internalType": "bool",
          "name": "",
          "type": "bool"
        }
      ],
      "stateMutability": "nonpayable",
      "type": "function"
    },
    {
      "inputs": [],
      "name": "listingPrice",
      "outputs": [
        {
          "internalType": "uint256",
          "name": "",
          "type": "uint256"
        }
      ],
      "stateMutability": "view",
      "type": "function"
    },
    {
      "inputs": [
        {
          "internalType": "string",
          "name": "_name",
          "type": "string"
        },
        {
          "internalType": "string",
          "name": "_description",
          "type": "string"
        },
        {
          "internalType": "string",
          "name": "_tokenURI",
          "type": "string"
        },
        {
          "internalType": "uint256",
          "name": "_price",
          "type": "uint256"
        }
      ],
      "name": "mintNFT",
      "outputs": [
        {
          "internalType": "uint256",
          "name": "",
          "type": "uint256"
        }
      ],
      "stateMutability": "payable",
      "type": "function"
    },
    {
      "inputs": [],
      "name": "name",
      "outputs": [
        {
          "internalType": "string",
          "name": "",
          "type": "string"
        }
      ],
      "stateMutability": "view",
      "type": "function"
    },
    {
      "inputs": [
        {
          "internalType": "uint256",
          "name": "",
          "type": "uint256"
        }
      ],
      "name": "nftObject",
      "outputs": [
        {
          "internalType": "uint256",
          "name": "tokenId",
          "type": "uint256"
        },
        {
          "internalType": "string",
          "name": "name",
          "type": "string"
        },
        {
          "internalType": "string",
          "name": "description",
          "type": "string"
        },
        {
          "internalType": "string",
          "name": "tokenURI",
          "type": "string"
        },
        {
          "internalType": "address payable",
          "name": "owner",
          "type": "address"
        },
        {
          "internalType": "uint256",
          "name": "price",
          "type": "uint256"
        },
        {
          "internalType": "bool",
          "name": "isListed",
          "type": "bool"
        }
      ],
      "stateMutability": "view",
      "type": "function"
    },
    {
      "inputs": [],
      "name": "owner",
      "outputs": [
        {
          "internalType": "address",
          "name": "",
          "type": "address"
        }
      ],
      "stateMutability": "view",
      "type": "function"
    },
    {
      "inputs": [
        {
          "internalType": "address",
          "name": "",
          "type": "address"
        },
        {
          "internalType": "uint256",
          "name": "",
          "type": "uint256"
        }
      ],
      "name": "ownerNFTs",
      "outputs": [
        {
          "internalType": "uint256",
          "name": "",
          "type": "uint256"
        }
      ],
      "stateMutability": "view",
      "type": "function"
    },
    {
      "inputs": [
        {
          "internalType": "uint256",
          "name": "tokenId",
          "type": "uint256"
        }
      ],
      "name": "ownerOf",
      "outputs": [
        {
          "internalType": "address",
          "name": "",
          "type": "address"
        }
      ],
      "stateMutability": "view",
      "type": "function"
    },
    {
      "inputs": [],
      "name": "renounceOwnership",
      "outputs": [],
      "stateMutability": "nonpayable",
      "type": "function"
    },
    {
      "inputs": [
        {
          "internalType": "address",
          "name": "from",
          "type": "address"
        },
        {
          "internalType": "address",
          "name": "to",
          "type": "address"
        },
        {
          "internalType": "uint256",
          "name": "tokenId",
          "type": "uint256"
        }
      ],
      "name": "safeTransferFrom",
      "outputs": [],
      "stateMutability": "nonpayable",
      "type": "function"
    },
    {
      "inputs": [
        {
          "internalType": "address",
          "name": "from",
          "type": "address"
        },
        {
          "internalType": "address",
          "name": "to",
          "type": "address"
        },
        {
          "internalType": "uint256",
          "name": "tokenId",
          "type": "uint256"
        },
        {
          "internalType": "bytes",
          "name": "data",
          "type": "bytes"
        }
      ],
      "name": "safeTransferFrom",
      "outputs": [],
      "stateMutability": "nonpayable",
      "type": "function"
    },
    {
      "inputs": [
        {
          "internalType": "address",
          "name": "operator",
          "type": "address"
        },
        {
          "internalType": "bool",
          "name": "approved",
          "type": "bool"
        }
      ],
      "name": "setApprovalForAll",
      "outputs": [],
      "stateMutability": "nonpayable",
      "type": "function"
    },
    {
      "inputs": [
        {
          "internalType": "bytes4",
          "name": "interfaceId",
          "type": "bytes4"
        }
      ],
      "name": "supportsInterface",
      "outputs": [
        {
          "internalType": "bool",
          "name": "",
          "type": "bool"
        }
      ],
      "stateMutability": "view",
      "type": "function"
    },
    {
      "inputs": [],
      "name": "symbol",
      "outputs": [
        {
          "internalType": "string",
          "name": "",
          "type": "string"
        }
      ],
      "stateMutability": "view",
      "type": "function"
    },
    {
      "inputs": [
        {
          "internalType": "uint256",
          "name": "tokenId",
          "type": "uint256"
        }
      ],
      "name": "tokenURI",
      "outputs": [
        {
          "internalType": "string",
          "name": "",
          "type": "string"
        }
      ],
      "stateMutability": "view",
      "type": "function"
    },
    {
      "inputs": [],
      "name": "totalSupply",
      "outputs": [
        {
          "internalType": "uint256",
          "name": "",
          "type": "uint256"
        }
      ],
      "stateMutability": "view",
      "type": "function"
    },
    {
      "inputs": [
        {
          "internalType": "address",
          "name": "from",
          "type": "address"
        },
        {
          "internalType": "address",
          "name": "to",
          "type": "address"
        },
        {
          "internalType": "uint256",
          "name": "tokenId",
          "type": "uint256"
        }
      ],
      "name": "transferFrom",
      "outputs": [],
      "stateMutability": "nonpayable",
      "type": "function"
    },
    {
      "inputs": [
        {
          "internalType": "address",
          "name": "newOwner",
          "type": "address"
        }
      ],
      "name": "transferOwnership",
      "outputs": [],
      "stateMutability": "nonpayable",
      "type": "function"
    },
    {
      "inputs": [
        {
          "internalType": "uint256",
          "name": "_tokenId",
          "type": "uint256"
        }
      ],
      "name": "unlistNFT",
      "outputs": [
        {
          "internalType": "bool",
          "name": "",
          "type": "bool"
        }
      ],
      "stateMutability": "nonpayable",
      "type": "function"
    },
    {
      "inputs": [],
      "name": "withdrawFees",
      "outputs": [],
      "stateMutability": "nonpayable",
      "type": "function"
    }
  ],
  "bytecode": "0x60806040523480156200001157600080fd5b506040518060400160405280600981526020016826a5aa2faa27a5a2a760b91b8152506040518060400160405280600781526020016626a5aa282a25a760c91b815250816000908162000065919062000199565b50600162000074828262000199565b505050620000916200008b6200009c60201b60201c565b620000a0565b600160085562000265565b3390565b600780546001600160a01b038381166001600160a01b0319831681179093556040519116919082907f8be0079c531659141344cd1fd0a4f28419497f9722a3daafe3b4186f6b6457e090600090a35050565b634e487b7160e01b600052604160045260246000fd5b600181811c908216806200011d57607f821691505b6020821081036200013e57634e487b7160e01b600052602260045260246000fd5b50919050565b601f82111562000194576000816000526020600020601f850160051c810160208610156200016f5750805b601f850160051c820191505b8181101562000190578281556001016200017b565b5050505b505050565b81516001600160401b03811115620001b557620001b5620000f2565b620001cd81620001c6845462000108565b8462000144565b602080601f831160018114620002055760008415620001ec5750858301515b600019600386901b1c1916600185901b17855562000190565b600085815260208120601f198616915b82811015620002365788860151825594840194600190910190840162000215565b5085821015620002555787850151600019600388901b60f8161c191681555b5050505050600190811b01905550565b61371d80620002756000396000f3fe60806040526004361061016d5760003560e01c8063715018a6116100c7578063715018a61461035a5780638da5cb5b1461036f57806395d89b4114610384578063961f094414610399578063988c1032146103b9578063a22cb465146103ec578063b88d4fde1461040c578063bf162d671461042c578063c78f19f91461044c578063c87b56dd14610467578063d076f13f14610487578063e0391b09146104a7578063e2afe8b3146104bc578063e985e9c5146104dc578063f2fde38b146104fc57600080fd5b8063012386f01461017257806301ffc9a71461019d57806306fdde03146101cd578063081812fc146101ef578063095ea7b31461022757806318160ddd1461024957806323b872dd1461026857806332cb6b0c14610288578063345a98c41461029f57806342842e0e146102b2578063476343ee146102d257806351ed8288146102e75780636352211e146102fa5780636be9479b1461031a57806370a082311461033a575b600080fd5b34801561017e57600080fd5b5061018761051c565b6040516101949190612da1565b60405180910390f35b3480156101a957600080fd5b506101bd6101b8366004612eb3565b6108a0565b6040519015158152602001610194565b3480156101d957600080fd5b506101e26108cb565b6040516101949190612ed0565b3480156101fb57600080fd5b5061020f61020a366004612ee3565b61095d565b6040516001600160a01b039091168152602001610194565b34801561023357600080fd5b50610247610242366004612f18565b610984565b005b34801561025557600080fd5b506009545b604051908152602001610194565b34801561027457600080fd5b50610247610283366004612f42565b610a9e565b34801561029457600080fd5b5061025a620f424081565b61025a6102ad366004613029565b610acf565b3480156102be57600080fd5b506102476102cd366004612f42565b610e74565b3480156102de57600080fd5b50610247610e8f565b6102476102f5366004612ee3565b610f38565b34801561030657600080fd5b5061020f610315366004612ee3565b6111e4565b34801561032657600080fd5b5061025a610335366004612f18565b611218565b34801561034657600080fd5b5061025a6103553660046130b8565b611249565b34801561036657600080fd5b506102476112cf565b34801561037b57600080fd5b5061020f6112e3565b34801561039057600080fd5b506101e26112f2565b3480156103a557600080fd5b506101bd6103b4366004612ee3565b611301565b3480156103c557600080fd5b506103d96103d4366004612ee3565b61140e565b60405161019497969594939291906130d3565b3480156103f857600080fd5b5061024761040736600461313d565b6115f0565b34801561041857600080fd5b50610247610427366004613179565b6115ff565b34801561043857600080fd5b506103d9610447366004612ee3565b611637565b34801561045857600080fd5b5061025a66038d7ea4c6800081565b34801561047357600080fd5b506101e2610482366004612ee3565b61166c565b34801561049357600080fd5b506101bd6104a2366004612ee3565b611774565b3480156104b357600080fd5b506101876118f8565b3480156104c857600080fd5b506101876104d73660046130b8565b611c1a565b3480156104e857600080fd5b506101bd6104f73660046131f4565b611fad565b34801561050857600080fd5b506102476105173660046130b8565b611fdb565b6060600060015b6009548111610566576000818152600a602052604090206006015460ff161561055457816105508161323d565b9250505b8061055e8161323d565b915050610523565b506000816001600160401b0381111561058157610581612f7e565b6040519080825280602002602001820160405280156105ba57816020015b6105a7612c02565b81526020019060019003908161059f5790505b509050600060015b6009548111610897576000818152600a602052604090206006015460ff161561088557600a6000828152602001908152602001600020604051806101000160405290816000820154815260200160018201805461061e90613256565b80601f016020809104026020016040519081016040528092919081815260200182805461064a90613256565b80156106975780601f1061066c57610100808354040283529160200191610697565b820191906000526020600020905b81548152906001019060200180831161067a57829003601f168201915b505050505081526020016002820180546106b090613256565b80601f01602080910402602001604051908101604052809291908181526020018280546106dc90613256565b80156107295780601f106106fe57610100808354040283529160200191610729565b820191906000526020600020905b81548152906001019060200180831161070c57829003601f168201915b5050505050815260200160038201805461074290613256565b80601f016020809104026020016040519081016040528092919081815260200182805461076e90613256565b80156107bb5780601f10610790576101008083540402835291602001916107bb565b820191906000526020600020905b81548152906001019060200180831161079e57829003601f168201915b505050918352505060048201546001600160a01b03166020808301919091526005830154604080840191909152600684015460ff1615156060840152600784018054825181850281018501909352808352608090940193919290919083018282801561085057602002820191906000526020600020905b81546001600160a01b03168152600190910190602001808311610832575b50505050508152505083838151811061086b5761086b61328a565b602002602001018190525081806108819061323d565b9250505b8061088f8161323d565b9150506105c2565b50909392505050565b60006001600160e01b03198216632483248360e11b14806108c557506108c582612051565b92915050565b6060600080546108da90613256565b80601f016020809104026020016040519081016040528092919081815260200182805461090690613256565b80156109535780601f1061092857610100808354040283529160200191610953565b820191906000526020600020905b81548152906001019060200180831161093657829003601f168201915b5050505050905090565b6000610968826120a1565b506000908152600460205260409020546001600160a01b031690565b600061098f826111e4565b9050806001600160a01b0316836001600160a01b031603610a015760405162461bcd60e51b815260206004820152602160248201527f4552433732313a20617070726f76616c20746f2063757272656e74206f776e656044820152603960f91b60648201526084015b60405180910390fd5b336001600160a01b0382161480610a1d5750610a1d8133611fad565b610a8f5760405162461bcd60e51b815260206004820152603d60248201527f4552433732313a20617070726f76652063616c6c6572206973206e6f7420746f60448201527f6b656e206f776e6572206f7220617070726f76656420666f7220616c6c00000060648201526084016109f8565b610a9983836120c6565b505050565b610aa83382612134565b610ac45760405162461bcd60e51b81526004016109f8906132a0565b610a99838383612192565b6000620f4240610ade60095490565b610ae99060016132ed565b1115610b2c5760405162461bcd60e51b815260206004820152601260248201527113585e081cdd5c1c1b1e481c995858da195960721b60448201526064016109f8565b66038d7ea4c68000341015610b7c5760405162461bcd60e51b8152602060048201526016602482015275131a5cdd1a5b99c81c1c9a58d9481c995c5d5a5c995960521b60448201526064016109f8565b60008211610bc05760405162461bcd60e51b815260206004820152601160248201527005072696365206d757374206265203e203607c1b60448201526064016109f8565b6000610bcb60095490565b610bd69060016132ed565b9050610be233826122f6565b610bec8185612310565b60098054906000610bfc8361323d565b9091555050604080516101008101825282815260208082018981528284018990526060830188905233608084015260a08301879052600060c084018190528451818152808401865260e0850152858152600a9092529290208151815591519091906001820190610c6c9082613365565b5060408201516002820190610c819082613365565b5060608201516003820190610c969082613365565b5060808201516004820180546001600160a01b0319166001600160a01b0390921691909117905560a0820151600582015560c082015160068201805460ff191691151591909117905560e08201518051610cfa916007840191602090910190612c52565b5050336000908152600b6020908152604080832080546001818101835591855283852001869055858452600a9092528220600c805480840182559352805460089093027fdf6966c971051c3d54ec59162606531493a51404a002842f56009d7e5cf4a8c781019384559093507fdf6966c971051c3d54ec59162606531493a51404a002842f56009d7e5cf4a8c80190610d959084018261341e565b50600281810190610da89084018261341e565b50600381810190610dbb9084018261341e565b5060048281015490820180546001600160a01b0319166001600160a01b0390921691909117905560058083015490820155600680830154908201805460ff909216151560ff1990921691909117905560078083018054610e1e9284019190612cb7565b505050336001600160a01b0316817f180bd32f9a7e1550bde3e8ac66ebf588c8be07ee05b29a7d778eabf2bf9a05a088888888604051610e6194939291906134ea565b60405180910390a390505b949350505050565b610a99838383604051806020016040528060008152506115ff565b610e976123cc565b6000610ea16112e3565b6001600160a01b03164760405160006040518083038185875af1925050503d8060008114610eeb576040519150601f19603f3d011682016040523d82523d6000602084013e610ef0565b606091505b5050905080610f355760405162461bcd60e51b815260206004820152601160248201527015da5d1a191c985dd85b0819985a5b1959607a1b60448201526064016109f8565b50565b610f4061242b565b6000818152600a60205260409020600681015460ff16610f8f5760405162461bcd60e51b815260206004820152600a602482015269139bdd081b1a5cdd195960b21b60448201526064016109f8565b8060050154341015610fd85760405162461bcd60e51b8152602060048201526012602482015271496e73756666696369656e742066756e647360701b60448201526064016109f8565b60048101805460058301546001600160a01b03198083163390811790945560068501805460ff19169055600785018054600181018255600091825260209091200180549091166001600160a01b039093169283179055909161103c90839086612192565b6110468285612484565b336000908152600b602090815260408220805460018101825590835291200184905561107184612548565b6000826001600160a01b03168260405160006040518083038185875af1925050503d80600081146110be576040519150601f19603f3d011682016040523d82523d6000602084013e6110c3565b606091505b50509050806111065760405162461bcd60e51b815260206004820152600f60248201526e151c985b9cd9995c8819985a5b1959608a1b60448201526064016109f8565b8134111561119f5760003361111b8434613535565b604051600081818185875af1925050503d8060008114611157576040519150601f19603f3d011682016040523d82523d6000602084013e61115c565b606091505b505090508061119d5760405162461bcd60e51b815260206004820152600d60248201526c1499599d5b990819985a5b1959609a1b60448201526064016109f8565b505b604051828152339086907f26701af1547d690b8c46ed5f0fbb8d5b115492b3b898f3dfc2e87b26cfcc1b149060200160405180910390a350505050610f356001600855565b6000806111f083612661565b90506001600160a01b0381166108c55760405162461bcd60e51b81526004016109f890613548565b600b602052816000526040600020818154811061123457600080fd5b90600052602060002001600091509150505481565b60006001600160a01b0382166112b35760405162461bcd60e51b815260206004820152602960248201527f4552433732313a2061646472657373207a65726f206973206e6f7420612076616044820152683634b21037bbb732b960b91b60648201526084016109f8565b506001600160a01b031660009081526003602052604090205490565b6112d76123cc565b6112e1600061267c565b565b6007546001600160a01b031690565b6060600180546108da90613256565b60003361130d836111e4565b6001600160a01b03161461136d5760405162461bcd60e51b815260206004820152602160248201527f4f6e6c7920746865206f776e65722063616e20756e6c69737420746865204e466044820152601560fa1b60648201526084016109f8565b6000828152600a60205260409020600681015460ff166113c35760405162461bcd60e51b8152602060048201526011602482015270139195081a5cc81b9bdd081b1a5cdd1959607a1b60448201526064016109f8565b60068101805460ff191690556113d883612548565b604051339084907fb765e971c123cbdac007f49987b1aac638149f995ba62034fc509604cac5f01e90600090a350600192915050565b600a602052600090815260409020805460018201805491929161143090613256565b80601f016020809104026020016040519081016040528092919081815260200182805461145c90613256565b80156114a95780601f1061147e576101008083540402835291602001916114a9565b820191906000526020600020905b81548152906001019060200180831161148c57829003601f168201915b5050505050908060020180546114be90613256565b80601f01602080910402602001604051908101604052809291908181526020018280546114ea90613256565b80156115375780601f1061150c57610100808354040283529160200191611537565b820191906000526020600020905b81548152906001019060200180831161151a57829003601f168201915b50505050509080600301805461154c90613256565b80601f016020809104026020016040519081016040528092919081815260200182805461157890613256565b80156115c55780601f1061159a576101008083540402835291602001916115c5565b820191906000526020600020905b8154815290600101906020018083116115a857829003601f168201915b505050506004830154600584015460069094015492936001600160a01b039091169290915060ff1687565b6115fb3383836126ce565b5050565b6116093383612134565b6116255760405162461bcd60e51b81526004016109f8906132a0565b61163184848484612798565b50505050565b600c818154811061164757600080fd5b6000918252602090912060089091020180546001820180549193509061143090613256565b6060611677826120a1565b6000828152600660205260408120805461169090613256565b80601f01602080910402602001604051908101604052809291908181526020018280546116bc90613256565b80156117095780601f106116de57610100808354040283529160200191611709565b820191906000526020600020905b8154815290600101906020018083116116ec57829003601f168201915b50505050509050600061172760408051602081019091526000815290565b90508051600003611739575092915050565b81511561176b57808260405160200161175392919061357a565b60405160208183030381529060405292505050919050565b610e6c846127cb565b600033611780836111e4565b6001600160a01b0316146117d65760405162461bcd60e51b815260206004820152601f60248201527f4f6e6c7920746865206f776e65722063616e206c69737420746865204e46540060448201526064016109f8565b6000828152600a60205260409020600501546118345760405162461bcd60e51b815260206004820152601f60248201527f5072696365206d7573742062652067726561746572207468616e207a65726f0060448201526064016109f8565b6000828152600a60205260409020600681015460ff161561188f5760405162461bcd60e51b8152602060048201526015602482015274139195081a5cc8185b1c9958591e481b1a5cdd1959605a1b60448201526064016109f8565b60068101805460ff191660011790556118a783612548565b336001600160a01b0316837fd2ab19646d6f9fdd37206f962b4ebaab8a4a23ad87f7695e7e1736803cb8bf7483600501546040516118e791815260200190565b60405180910390a350600192915050565b6060600061190560095490565b6001600160401b0381111561191c5761191c612f7e565b60405190808252806020026020018201604052801561195557816020015b611942612c02565b81526020019060019003908161193a5790505b50905060015b6009548111611c1457600a6000828152602001908152602001600020604051806101000160405290816000820154815260200160018201805461199d90613256565b80601f01602080910402602001604051908101604052809291908181526020018280546119c990613256565b8015611a165780601f106119eb57610100808354040283529160200191611a16565b820191906000526020600020905b8154815290600101906020018083116119f957829003601f168201915b50505050508152602001600282018054611a2f90613256565b80601f0160208091040260200160405190810160405280929190818152602001828054611a5b90613256565b8015611aa85780601f10611a7d57610100808354040283529160200191611aa8565b820191906000526020600020905b815481529060010190602001808311611a8b57829003601f168201915b50505050508152602001600382018054611ac190613256565b80601f0160208091040260200160405190810160405280929190818152602001828054611aed90613256565b8015611b3a5780601f10611b0f57610100808354040283529160200191611b3a565b820191906000526020600020905b815481529060010190602001808311611b1d57829003601f168201915b505050918352505060048201546001600160a01b03166020808301919091526005830154604080840191909152600684015460ff16151560608401526007840180548251818502810185019093528083526080909401939192909190830182828015611bcf57602002820191906000526020600020905b81546001600160a01b03168152600190910190602001808311611bb1575b50505050508152505082600183611be69190613535565b81518110611bf657611bf661328a565b60200260200101819052508080611c0c9061323d565b91505061195b565b50919050565b6060600060015b6009548111611c6b57836001600160a01b0316611c3d826111e4565b6001600160a01b031603611c595781611c558161323d565b9250505b80611c638161323d565b915050611c21565b506000816001600160401b03811115611c8657611c86612f7e565b604051908082528060200260200182016040528015611cbf57816020015b611cac612c02565b815260200190600190039081611ca45790505b509050600060015b6009548111611fa357856001600160a01b0316611ce3826111e4565b6001600160a01b031603611f9157600a60008281526020019081526020016000206040518061010001604052908160008201548152602001600182018054611d2a90613256565b80601f0160208091040260200160405190810160405280929190818152602001828054611d5690613256565b8015611da35780601f10611d7857610100808354040283529160200191611da3565b820191906000526020600020905b815481529060010190602001808311611d8657829003601f168201915b50505050508152602001600282018054611dbc90613256565b80601f0160208091040260200160405190810160405280929190818152602001828054611de890613256565b8015611e355780601f10611e0a57610100808354040283529160200191611e35565b820191906000526020600020905b815481529060010190602001808311611e1857829003601f168201915b50505050508152602001600382018054611e4e90613256565b80601f0160208091040260200160405190810160405280929190818152602001828054611e7a90613256565b8015611ec75780601f10611e9c57610100808354040283529160200191611ec7565b820191906000526020600020905b815481529060010190602001808311611eaa57829003601f168201915b505050918352505060048201546001600160a01b03166020808301919091526005830154604080840191909152600684015460ff16151560608401526007840180548251818502810185019093528083526080909401939192909190830182828015611f5c57602002820191906000526020600020905b81546001600160a01b03168152600190910190602001808311611f3e575b505050505081525050838381518110611f7757611f7761328a565b60200260200101819052508180611f8d9061323d565b9250505b80611f9b8161323d565b915050611cc7565b5090949350505050565b6001600160a01b03918216600090815260056020908152604080832093909416825291909152205460ff1690565b611fe36123cc565b6001600160a01b0381166120485760405162461bcd60e51b815260206004820152602660248201527f4f776e61626c653a206e6577206f776e657220697320746865207a65726f206160448201526564647265737360d01b60648201526084016109f8565b610f358161267c565b60006001600160e01b031982166380ac58cd60e01b148061208257506001600160e01b03198216635b5e139f60e01b145b806108c557506301ffc9a760e01b6001600160e01b03198316146108c5565b6120aa8161283f565b610f355760405162461bcd60e51b81526004016109f890613548565b600081815260046020526040902080546001600160a01b0319166001600160a01b03841690811790915581906120fb826111e4565b6001600160a01b03167f8c5be1e5ebec7d5bd14f71427d1e84f3dd0314c0f7b2291e5b200ac8c7c3b92560405160405180910390a45050565b600080612140836111e4565b9050806001600160a01b0316846001600160a01b0316148061216757506121678185611fad565b80610e6c5750836001600160a01b03166121808461095d565b6001600160a01b031614949350505050565b826001600160a01b03166121a5826111e4565b6001600160a01b0316146121cb5760405162461bcd60e51b81526004016109f8906135a9565b6001600160a01b03821661222d5760405162461bcd60e51b8152602060048201526024808201527f4552433732313a207472616e7366657220746f20746865207a65726f206164646044820152637265737360e01b60648201526084016109f8565b826001600160a01b0316612240826111e4565b6001600160a01b0316146122665760405162461bcd60e51b81526004016109f8906135a9565b600081815260046020908152604080832080546001600160a01b03199081169091556001600160a01b0387811680865260038552838620805460001901905590871680865283862080546001019055868652600290945282852080549092168417909155905184937fddf252ad1be2c89b69c2b068fc378daa952ba7f163c4a11628f55a4df523b3ef91a4505050565b6115fb82826040518060200160405280600081525061285c565b6123198261283f565b61237c5760405162461bcd60e51b815260206004820152602e60248201527f45524337323155524953746f726167653a2055524920736574206f66206e6f6e60448201526d32bc34b9ba32b73a103a37b5b2b760911b60648201526084016109f8565b60008281526006602052604090206123948282613365565b506040518281527ff8e1a15aba9398e019f0b49df1a4fde98ee17ae345cb5f6b5e2c27f5033e8ce79060200160405180910390a15050565b336123d56112e3565b6001600160a01b0316146112e15760405162461bcd60e51b815260206004820181905260248201527f4f776e61626c653a2063616c6c6572206973206e6f7420746865206f776e657260448201526064016109f8565b60026008540361247d5760405162461bcd60e51b815260206004820152601f60248201527f5265656e7472616e637947756172643a207265656e7472616e742063616c6c0060448201526064016109f8565b6002600855565b6001600160a01b0382166000908152600b60205260408120905b815481101561163157828282815481106124ba576124ba61328a565b90600052602060002001540361254057815482906124da90600190613535565b815481106124ea576124ea61328a565b90600052602060002001548282815481106125075761250761328a565b906000526020600020018190555081805480612525576125256135ee565b60019003818190600052602060002001600090559055611631565b60010161249e565b60005b600c548110156115fb5781600c82815481106125695761256961328a565b90600052602060002090600802016000015403612659576000828152600a60205260409020600c8054839081106125a2576125a261328a565b6000918252602090912082546008909202019081556001808201906125c99084018261341e565b506002818101906125dc9084018261341e565b506003818101906125ef9084018261341e565b5060048281015490820180546001600160a01b0319166001600160a01b0390921691909117905560058083015490820155600680830154908201805460ff909216151560ff19909216919091179055600780830180546126529284019190612cb7565b5050505050565b60010161254b565b6000908152600260205260409020546001600160a01b031690565b600780546001600160a01b038381166001600160a01b0319831681179093556040519116919082907f8be0079c531659141344cd1fd0a4f28419497f9722a3daafe3b4186f6b6457e090600090a35050565b816001600160a01b0316836001600160a01b03160361272b5760405162461bcd60e51b815260206004820152601960248201527822a9219b99189d1030b8383937bb32903a379031b0b63632b960391b60448201526064016109f8565b6001600160a01b03838116600081815260056020908152604080832094871680845294825291829020805460ff191686151590811790915591519182527f17307eab39ab6107e8899845ad3d59bd9653f200f220920489ca2b5937696c31910160405180910390a3505050565b6127a3848484612192565b6127af8484848461288f565b6116315760405162461bcd60e51b81526004016109f890613604565b60606127d6826120a1565b60006127ed60408051602081019091526000815290565b9050600081511161280d5760405180602001604052806000815250612838565b806128178461298d565b60405160200161282892919061357a565b6040516020818303038152906040525b9392505050565b60008061284b83612661565b6001600160a01b0316141592915050565b6128668383612a1f565b612873600084848461288f565b610a995760405162461bcd60e51b81526004016109f890613604565b60006001600160a01b0384163b1561298557604051630a85bd0160e11b81526001600160a01b0385169063150b7a02906128d3903390899088908890600401613656565b6020604051808303816000875af192505050801561290e575060408051601f3d908101601f1916820190925261290b91810190613693565b60015b61296b573d80801561293c576040519150601f19603f3d011682016040523d82523d6000602084013e612941565b606091505b5080516000036129635760405162461bcd60e51b81526004016109f890613604565b805181602001fd5b6001600160e01b031916630a85bd0160e11b149050610e6c565b506001610e6c565b6060600061299a83612b2c565b60010190506000816001600160401b038111156129b9576129b9612f7e565b6040519080825280601f01601f1916602001820160405280156129e3576020820181803683370190505b5090508181016020015b600019016f181899199a1a9b1b9c1cb0b131b232b360811b600a86061a8153600a85049450846129ed57509392505050565b6001600160a01b038216612a755760405162461bcd60e51b815260206004820181905260248201527f4552433732313a206d696e7420746f20746865207a65726f206164647265737360448201526064016109f8565b612a7e8161283f565b15612a9b5760405162461bcd60e51b81526004016109f8906136b0565b612aa48161283f565b15612ac15760405162461bcd60e51b81526004016109f8906136b0565b6001600160a01b038216600081815260036020908152604080832080546001019055848352600290915280822080546001600160a01b0319168417905551839291907fddf252ad1be2c89b69c2b068fc378daa952ba7f163c4a11628f55a4df523b3ef908290a45050565b60008072184f03e93ff9f4daa797ed6e38ed64bf6a1f0160401b8310612b6b5772184f03e93ff9f4daa797ed6e38ed64bf6a1f0160401b830492506040015b6904ee2d6d415b85acef8160201b8310612b95576904ee2d6d415b85acef8160201b830492506020015b662386f26fc100008310612bb357662386f26fc10000830492506010015b6305f5e1008310612bcb576305f5e100830492506008015b6127108310612bdf57612710830492506004015b60648310612bf1576064830492506002015b600a83106108c55760010192915050565b6040518061010001604052806000815260200160608152602001606081526020016060815260200160006001600160a01b0316815260200160008152602001600015158152602001606081525090565b828054828255906000526020600020908101928215612ca7579160200282015b82811115612ca757825182546001600160a01b0319166001600160a01b03909116178255602090920191600190910190612c72565b50612cb3929150612cf7565b5090565b828054828255906000526020600020908101928215612ca75760005260206000209182015b82811115612ca7578254825591600101919060010190612cdc565b5b80821115612cb35760008155600101612cf8565b60005b83811015612d27578181015183820152602001612d0f565b50506000910152565b60008151808452612d48816020860160208601612d0c565b601f01601f19169290920160200192915050565b60008151808452602080850194506020840160005b83811015612d965781516001600160a01b031687529582019590820190600101612d71565b509495945050505050565b600060208083018184528085518083526040925060408601915060408160051b87010184880160005b83811015612e8f57603f1989840301855281516101008151855288820151818a870152612df982870182612d30565b9150508782015185820389870152612e118282612d30565b91505060608083015186830382880152612e2b8382612d30565b92505050608080830151612e49828801826001600160a01b03169052565b505060a0828101519086015260c08083015115159086015260e09182015185820392860192909252612e7b8183612d5c565b968901969450505090860190600101612dca565b509098975050505050505050565b6001600160e01b031981168114610f3557600080fd5b600060208284031215612ec557600080fd5b813561283881612e9d565b6020815260006128386020830184612d30565b600060208284031215612ef557600080fd5b5035919050565b80356001600160a01b0381168114612f1357600080fd5b919050565b60008060408385031215612f2b57600080fd5b612f3483612efc565b946020939093013593505050565b600080600060608486031215612f5757600080fd5b612f6084612efc565b9250612f6e60208501612efc565b9150604084013590509250925092565b634e487b7160e01b600052604160045260246000fd5b60006001600160401b0380841115612fae57612fae612f7e565b604051601f8501601f19908116603f01168101908282118183101715612fd657612fd6612f7e565b81604052809350858152868686011115612fef57600080fd5b858560208301376000602087830101525050509392505050565b600082601f83011261301a57600080fd5b61283883833560208501612f94565b6000806000806080858703121561303f57600080fd5b84356001600160401b038082111561305657600080fd5b61306288838901613009565b9550602087013591508082111561307857600080fd5b61308488838901613009565b9450604087013591508082111561309a57600080fd5b506130a787828801613009565b949793965093946060013593505050565b6000602082840312156130ca57600080fd5b61283882612efc565b87815260e0602082015260006130ec60e0830189612d30565b82810360408401526130fe8189612d30565b905082810360608401526131128188612d30565b6001600160a01b03969096166080840152505060a0810192909252151560c090910152949350505050565b6000806040838503121561315057600080fd5b61315983612efc565b91506020830135801515811461316e57600080fd5b809150509250929050565b6000806000806080858703121561318f57600080fd5b61319885612efc565b93506131a660208601612efc565b92506040850135915060608501356001600160401b038111156131c857600080fd5b8501601f810187136131d957600080fd5b6131e887823560208401612f94565b91505092959194509250565b6000806040838503121561320757600080fd5b61321083612efc565b915061321e60208401612efc565b90509250929050565b634e487b7160e01b600052601160045260246000fd5b60006001820161324f5761324f613227565b5060010190565b600181811c9082168061326a57607f821691505b602082108103611c1457634e487b7160e01b600052602260045260246000fd5b634e487b7160e01b600052603260045260246000fd5b6020808252602d908201527f4552433732313a2063616c6c6572206973206e6f7420746f6b656e206f776e6560408201526c1c881bdc88185c1c1c9bdd9959609a1b606082015260800190565b808201808211156108c5576108c5613227565b601f821115610a99576000816000526020600020601f850160051c810160208610156133295750805b601f850160051c820191505b8181101561334857828155600101613335565b505050505050565b600019600383901b1c191660019190911b1790565b81516001600160401b0381111561337e5761337e612f7e565b6133928161338c8454613256565b84613300565b602080601f8311600181146133c157600084156133af5750858301515b6133b98582613350565b865550613348565b600085815260208120601f198616915b828110156133f0578886015182559484019460019091019084016133d1565b508582101561340e5787850151600019600388901b60f8161c191681555b5050505050600190811b01905550565b818103613429575050565b6134338254613256565b6001600160401b0381111561344a5761344a612f7e565b6134588161338c8454613256565b6000601f82116001811461348657600083156134745750848201545b61347e8482613350565b855550612652565b600085815260209020601f19841690600086815260209020845b838110156134c057828601548255600195860195909101906020016134a0565b508583101561340e5793015460001960f8600387901b161c19169092555050600190811b01905550565b6080815260006134fd6080830187612d30565b828103602084015261350f8187612d30565b905082810360408401526135238186612d30565b91505082606083015295945050505050565b818103818111156108c5576108c5613227565b602080825260189082015277115490cdcc8c4e881a5b9d985b1a59081d1bdad95b88125160421b604082015260600190565b6000835161358c818460208801612d0c565b8351908301906135a0818360208801612d0c565b01949350505050565b60208082526025908201527f4552433732313a207472616e736665722066726f6d20696e636f72726563742060408201526437bbb732b960d91b606082015260800190565b634e487b7160e01b600052603160045260246000fd5b60208082526032908201527f4552433732313a207472616e7366657220746f206e6f6e20455243373231526560408201527131b2b4bb32b91034b6b83632b6b2b73a32b960711b606082015260800190565b6001600160a01b038581168252841660208201526040810183905260806060820181905260009061368990830184612d30565b9695505050505050565b6000602082840312156136a557600080fd5b815161283881612e9d565b6020808252601c908201527f4552433732313a20746f6b656e20616c7265616479206d696e7465640000000060408201526060019056fea2646970667358221220c6efdc82fdccbf0c1da2e3aec3646179617e1e538749ded2b12a988c11521be564736f6c63430008180033",
  "linkReferences": {},
  "deployedLinkReferences": {}
}