{
  "_format": "hh-sol-artifact-1",
  "contractName": "MarketPlace",
  "sourceName": "contracts/MarketPlace.sol",
  "abi": [
    {
      "inputs": [],
      "stateMutability": "nonpayable",
      "type": "constructor"
    },
    {
      "anonymous": false,
      "inputs": [
        {
          "indexed": true,
          "internalType": "address",
          "name": "owner",
          "type": "address"
        },
        {
          "indexed": true,
          "internalType": "address",
          "name": "approved",
          "type": "address"
        },
        {
          "indexed": true,
          "internalType": "uint256",
          "name": "tokenId",
          "type": "uint256"
        }
      ],
      "name": "Approval",
      "type": "event"
    },
    {
      "anonymous": false,
      "inputs": [
        {
          "indexed": true,
          "internalType": "address",
          "name": "owner",
          "type": "address"
        },
        {
          "indexed": true,
          "internalType": "address",
          "name": "operator",
          "type": "address"
        },
        {
          "indexed": false,
          "internalType": "bool",
          "name": "approved",
          "type": "bool"
        }
      ],
      "name": "ApprovalForAll",
      "type": "event"
    },
    {
      "anonymous": false,
      "inputs": [
        {
          "indexed": false,
          "internalType": "uint256",
          "name": "_fromTokenId",
          "type": "uint256"
        },
        {
          "indexed": false,
          "internalType": "uint256",
          "name": "_toTokenId",
          "type": "uint256"
        }
      ],
      "name": "BatchMetadataUpdate",
      "type": "event"
    },
    {
      "anonymous": false,
      "inputs": [
        {
          "indexed": false,
          "internalType": "uint256",
          "name": "_tokenId",
          "type": "uint256"
        }
      ],
      "name": "MetadataUpdate",
      "type": "event"
    },
    {
      "anonymous": false,
      "inputs": [
        {
          "indexed": true,
          "internalType": "uint256",
          "name": "tokenId",
          "type": "uint256"
        },
        {
          "indexed": true,
          "internalType": "address",
          "name": "buyer",
          "type": "address"
        },
        {
          "indexed": false,
          "internalType": "uint256",
          "name": "price",
          "type": "uint256"
        }
      ],
      "name": "NFTBought",
      "type": "event"
    },
    {
      "anonymous": false,
      "inputs": [
        {
          "indexed": true,
          "internalType": "uint256",
          "name": "tokenId",
          "type": "uint256"
        },
        {
          "indexed": false,
          "internalType": "uint256",
          "name": "price",
          "type": "uint256"
        },
        {
          "indexed": true,
          "internalType": "address",
          "name": "owner",
          "type": "address"
        }
      ],
      "name": "NFTListed",
      "type": "event"
    },
    {
      "anonymous": false,
      "inputs": [
        {
          "indexed": true,
          "internalType": "uint256",
          "name": "tokenId",
          "type": "uint256"
        },
        {
          "indexed": false,
          "internalType": "string",
          "name": "name",
          "type": "string"
        },
        {
          "indexed": false,
          "internalType": "string",
          "name": "description",
          "type": "string"
        },
        {
          "indexed": false,
          "internalType": "string",
          "name": "tokenURI",
          "type": "string"
        },
        {
          "indexed": false,
          "internalType": "uint256",
          "name": "price",
          "type": "uint256"
        },
        {
          "indexed": true,
          "internalType": "address",
          "name": "owner",
          "type": "address"
        }
      ],
      "name": "NFTMinted",
      "type": "event"
    },
    {
      "anonymous": false,
      "inputs": [
        {
          "indexed": true,
          "internalType": "uint256",
          "name": "tokenId",
          "type": "uint256"
        },
        {
          "indexed": true,
          "internalType": "address",
          "name": "owner",
          "type": "address"
        }
      ],
      "name": "NFTUnlisted",
      "type": "event"
    },
    {
      "anonymous": false,
      "inputs": [
        {
          "indexed": true,
          "internalType": "address",
          "name": "previousOwner",
          "type": "address"
        },
        {
          "indexed": true,
          "internalType": "address",
          "name": "newOwner",
          "type": "address"
        }
      ],
      "name": "OwnershipTransferred",
      "type": "event"
    },
    {
      "anonymous": false,
      "inputs": [
        {
          "indexed": true,
          "internalType": "uint256",
          "name": "tokenId",
          "type": "uint256"
        },
        {
          "indexed": false,
          "internalType": "string",
          "name": "name",
          "type": "string"
        },
        {
          "indexed": false,
          "internalType": "string",
          "name": "description",
          "type": "string"
        },
        {
          "indexed": false,
          "internalType": "string",
          "name": "tokenURI",
          "type": "string"
        },
        {
          "indexed": false,
          "internalType": "uint256",
          "name": "price",
          "type": "uint256"
        },
        {
          "indexed": true,
          "internalType": "address",
          "name": "buyer",
          "type": "address"
        }
      ],
      "name": "PURCHASE_SUCCESS",
      "type": "event"
    },
    {
      "anonymous": false,
      "inputs": [
        {
          "indexed": true,
          "internalType": "address",
          "name": "from",
          "type": "address"
        },
        {
          "indexed": true,
          "internalType": "address",
          "name": "to",
          "type": "address"
        },
        {
          "indexed": true,
          "internalType": "uint256",
          "name": "tokenId",
          "type": "uint256"
        }
      ],
      "name": "Transfer",
      "type": "event"
    },
    {
      "inputs": [],
      "name": "MAX_SUPPLY",
      "outputs": [
        {
          "internalType": "uint256",
          "name": "",
          "type": "uint256"
        }
      ],
      "stateMutability": "view",
      "type": "function"
    },
    {
      "inputs": [
        {
          "internalType": "uint256",
          "name": "",
          "type": "uint256"
        }
      ],
      "name": "allNFTs",
      "outputs": [
        {
          "internalType": "uint256",
          "name": "tokenId",
          "type": "uint256"
        },
        {
          "internalType": "string",
          "name": "name",
          "type": "string"
        },
        {
          "internalType": "string",
          "name": "description",
          "type": "string"
        },
        {
          "internalType": "string",
          "name": "tokenURI",
          "type": "string"
        },
        {
          "internalType": "address payable",
          "name": "owner",
          "type": "address"
        },
        {
          "internalType": "uint256",
          "name": "price",
          "type": "uint256"
        },
        {
          "internalType": "bool",
          "name": "isListed",
          "type": "bool"
        }
      ],
      "stateMutability": "view",
      "type": "function"
    },
    {
      "inputs": [
        {
          "internalType": "address",
          "name": "to",
          "type": "address"
        },
        {
          "internalType": "uint256",
          "name": "tokenId",
          "type": "uint256"
        }
      ],
      "name": "approve",
      "outputs": [],
      "stateMutability": "nonpayable",
      "type": "function"
    },
    {
      "inputs": [
        {
          "internalType": "address",
          "name": "owner",
          "type": "address"
        }
      ],
      "name": "balanceOf",
      "outputs": [
        {
          "internalType": "uint256",
          "name": "",
          "type": "uint256"
        }
      ],
      "stateMutability": "view",
      "type": "function"
    },
    {
      "inputs": [
        {
          "internalType": "uint256",
          "name": "_tokenId",
          "type": "uint256"
        }
      ],
      "name": "buyNFT",
      "outputs": [],
      "stateMutability": "payable",
      "type": "function"
    },
    {
      "inputs": [],
      "name": "getAllNFTs",
      "outputs": [
        {
          "components": [
            {
              "internalType": "uint256",
              "name": "tokenId",
              "type": "uint256"
            },
            {
              "internalType": "string",
              "name": "name",
              "type": "string"
            },
            {
              "internalType": "string",
              "name": "description",
              "type": "string"
            },
            {
              "internalType": "string",
              "name": "tokenURI",
              "type": "string"
            },
            {
              "internalType": "address payable",
              "name": "owner",
              "type": "address"
            },
            {
              "internalType": "uint256",
              "name": "price",
              "type": "uint256"
            },
            {
              "internalType": "bool",
              "name": "isListed",
              "type": "bool"
            },
            {
              "internalType": "address[]",
              "name": "previousOwners",
              "type": "address[]"
            }
          ],
          "internalType": "struct MarketPlace.NFT_RWA[]",
          "name": "",
          "type": "tuple[]"
        }
      ],
      "stateMutability": "view",
      "type": "function"
    },
    {
      "inputs": [
        {
          "internalType": "uint256",
          "name": "tokenId",
          "type": "uint256"
        }
      ],
      "name": "getApproved",
      "outputs": [
        {
          "internalType": "address",
          "name": "",
          "type": "address"
        }
      ],
      "stateMutability": "view",
      "type": "function"
    },
    {
      "inputs": [],
      "name": "getListedNFTs",
      "outputs": [
        {
          "components": [
            {
              "internalType": "uint256",
              "name": "tokenId",
              "type": "uint256"
            },
            {
              "internalType": "string",
              "name": "name",
              "type": "string"
            },
            {
              "internalType": "string",
              "name": "description",
              "type": "string"
            },
            {
              "internalType": "string",
              "name": "tokenURI",
              "type": "string"
            },
            {
              "internalType": "address payable",
              "name": "owner",
              "type": "address"
            },
            {
              "internalType": "uint256",
              "name": "price",
              "type": "uint256"
            },
            {
              "internalType": "bool",
              "name": "isListed",
              "type": "bool"
            },
            {
              "internalType": "address[]",
              "name": "previousOwners",
              "type": "address[]"
            }
          ],
          "internalType": "struct MarketPlace.NFT_RWA[]",
          "name": "",
          "type": "tuple[]"
        }
      ],
      "stateMutability": "view",
      "type": "function"
    },
    {
      "inputs": [
        {
          "internalType": "address",
          "name": "_owner",
          "type": "address"
        }
      ],
      "name": "getNFTsByOwner",
      "outputs": [
        {
          "components": [
            {
              "internalType": "uint256",
              "name": "tokenId",
              "type": "uint256"
            },
            {
              "internalType": "string",
              "name": "name",
              "type": "string"
            },
            {
              "internalType": "string",
              "name": "description",
              "type": "string"
            },
            {
              "internalType": "string",
              "name": "tokenURI",
              "type": "string"
            },
            {
              "internalType": "address payable",
              "name": "owner",
              "type": "address"
            },
            {
              "internalType": "uint256",
              "name": "price",
              "type": "uint256"
            },
            {
              "internalType": "bool",
              "name": "isListed",
              "type": "bool"
            },
            {
              "internalType": "address[]",
              "name": "previousOwners",
              "type": "address[]"
            }
          ],
          "internalType": "struct MarketPlace.NFT_RWA[]",
          "name": "",
          "type": "tuple[]"
        }
      ],
      "stateMutability": "view",
      "type": "function"
    },
    {
      "inputs": [
        {
          "internalType": "address",
          "name": "owner",
          "type": "address"
        },
        {
          "internalType": "address",
          "name": "operator",
          "type": "address"
        }
      ],
      "name": "isApprovedForAll",
      "outputs": [
        {
          "internalType": "bool",
          "name": "",
          "type": "bool"
        }
      ],
      "stateMutability": "view",
      "type": "function"
    },
    {
      "inputs": [
        {
          "internalType": "uint256",
          "name": "_tokenId",
          "type": "uint256"
        }
      ],
      "name": "listNFT",
      "outputs": [
        {
          "internalType": "bool",
          "name": "",
          "type": "bool"
        }
      ],
      "stateMutability": "nonpayable",
      "type": "function"
    },
    {
      "inputs": [],
      "name": "listingPrice",
      "outputs": [
        {
          "internalType": "uint256",
          "name": "",
          "type": "uint256"
        }
      ],
      "stateMutability": "view",
      "type": "function"
    },
    {
      "inputs": [
        {
          "internalType": "string",
          "name": "_name",
          "type": "string"
        },
        {
          "internalType": "string",
          "name": "_description",
          "type": "string"
        },
        {
          "internalType": "string",
          "name": "_tokenURI",
          "type": "string"
        },
        {
          "internalType": "uint256",
          "name": "_price",
          "type": "uint256"
        }
      ],
      "name": "mintNFT",
      "outputs": [
        {
          "internalType": "uint256",
          "name": "",
          "type": "uint256"
        }
      ],
      "stateMutability": "nonpayable",
      "type": "function"
    },
    {
      "inputs": [],
      "name": "name",
      "outputs": [
        {
          "internalType": "string",
          "name": "",
          "type": "string"
        }
      ],
      "stateMutability": "view",
      "type": "function"
    },
    {
      "inputs": [
        {
          "internalType": "uint256",
          "name": "",
          "type": "uint256"
        }
      ],
      "name": "nftObject",
      "outputs": [
        {
          "internalType": "uint256",
          "name": "tokenId",
          "type": "uint256"
        },
        {
          "internalType": "string",
          "name": "name",
          "type": "string"
        },
        {
          "internalType": "string",
          "name": "description",
          "type": "string"
        },
        {
          "internalType": "string",
          "name": "tokenURI",
          "type": "string"
        },
        {
          "internalType": "address payable",
          "name": "owner",
          "type": "address"
        },
        {
          "internalType": "uint256",
          "name": "price",
          "type": "uint256"
        },
        {
          "internalType": "bool",
          "name": "isListed",
          "type": "bool"
        }
      ],
      "stateMutability": "view",
      "type": "function"
    },
    {
      "inputs": [],
      "name": "owner",
      "outputs": [
        {
          "internalType": "address",
          "name": "",
          "type": "address"
        }
      ],
      "stateMutability": "view",
      "type": "function"
    },
    {
      "inputs": [
        {
          "internalType": "address",
          "name": "",
          "type": "address"
        },
        {
          "internalType": "uint256",
          "name": "",
          "type": "uint256"
        }
      ],
      "name": "ownerNFTs",
      "outputs": [
        {
          "internalType": "uint256",
          "name": "",
          "type": "uint256"
        }
      ],
      "stateMutability": "view",
      "type": "function"
    },
    {
      "inputs": [
        {
          "internalType": "uint256",
          "name": "tokenId",
          "type": "uint256"
        }
      ],
      "name": "ownerOf",
      "outputs": [
        {
          "internalType": "address",
          "name": "",
          "type": "address"
        }
      ],
      "stateMutability": "view",
      "type": "function"
    },
    {
      "inputs": [],
      "name": "renounceOwnership",
      "outputs": [],
      "stateMutability": "nonpayable",
      "type": "function"
    },
    {
      "inputs": [
        {
          "internalType": "address",
          "name": "from",
          "type": "address"
        },
        {
          "internalType": "address",
          "name": "to",
          "type": "address"
        },
        {
          "internalType": "uint256",
          "name": "tokenId",
          "type": "uint256"
        }
      ],
      "name": "safeTransferFrom",
      "outputs": [],
      "stateMutability": "nonpayable",
      "type": "function"
    },
    {
      "inputs": [
        {
          "internalType": "address",
          "name": "from",
          "type": "address"
        },
        {
          "internalType": "address",
          "name": "to",
          "type": "address"
        },
        {
          "internalType": "uint256",
          "name": "tokenId",
          "type": "uint256"
        },
        {
          "internalType": "bytes",
          "name": "data",
          "type": "bytes"
        }
      ],
      "name": "safeTransferFrom",
      "outputs": [],
      "stateMutability": "nonpayable",
      "type": "function"
    },
    {
      "inputs": [
        {
          "internalType": "address",
          "name": "operator",
          "type": "address"
        },
        {
          "internalType": "bool",
          "name": "approved",
          "type": "bool"
        }
      ],
      "name": "setApprovalForAll",
      "outputs": [],
      "stateMutability": "nonpayable",
      "type": "function"
    },
    {
      "inputs": [
        {
          "internalType": "bytes4",
          "name": "interfaceId",
          "type": "bytes4"
        }
      ],
      "name": "supportsInterface",
      "outputs": [
        {
          "internalType": "bool",
          "name": "",
          "type": "bool"
        }
      ],
      "stateMutability": "view",
      "type": "function"
    },
    {
      "inputs": [],
      "name": "symbol",
      "outputs": [
        {
          "internalType": "string",
          "name": "",
          "type": "string"
        }
      ],
      "stateMutability": "view",
      "type": "function"
    },
    {
      "inputs": [
        {
          "internalType": "uint256",
          "name": "tokenId",
          "type": "uint256"
        }
      ],
      "name": "tokenURI",
      "outputs": [
        {
          "internalType": "string",
          "name": "",
          "type": "string"
        }
      ],
      "stateMutability": "view",
      "type": "function"
    },
    {
      "inputs": [],
      "name": "totalSupply",
      "outputs": [
        {
          "internalType": "uint256",
          "name": "",
          "type": "uint256"
        }
      ],
      "stateMutability": "view",
      "type": "function"
    },
    {
      "inputs": [
        {
          "internalType": "address",
          "name": "from",
          "type": "address"
        },
        {
          "internalType": "address",
          "name": "to",
          "type": "address"
        },
        {
          "internalType": "uint256",
          "name": "tokenId",
          "type": "uint256"
        }
      ],
      "name": "transferFrom",
      "outputs": [],
      "stateMutability": "nonpayable",
      "type": "function"
    },
    {
      "inputs": [
        {
          "internalType": "address",
          "name": "newOwner",
          "type": "address"
        }
      ],
      "name": "transferOwnership",
      "outputs": [],
      "stateMutability": "nonpayable",
      "type": "function"
    },
    {
      "inputs": [
        {
          "internalType": "uint256",
          "name": "_tokenId",
          "type": "uint256"
        }
      ],
      "name": "unlistNFT",
      "outputs": [
        {
          "internalType": "bool",
          "name": "",
          "type": "bool"
        }
      ],
      "stateMutability": "nonpayable",
      "type": "function"
    },
    {
      "inputs": [],
      "name": "withdrawFees",
      "outputs": [],
      "stateMutability": "nonpayable",
      "type": "function"
    }
  ],
  "bytecode": "0x60806040523480156200001157600080fd5b506040518060400160405280600981526020016826a5aa2faa27a5a2a760b91b8152506040518060400160405280600781526020016626a5aa282a25a760c91b815250816000908162000065919062000199565b50600162000074828262000199565b505050620000916200008b6200009c60201b60201c565b620000a0565b600160085562000265565b3390565b600780546001600160a01b038381166001600160a01b0319831681179093556040519116919082907f8be0079c531659141344cd1fd0a4f28419497f9722a3daafe3b4186f6b6457e090600090a35050565b634e487b7160e01b600052604160045260246000fd5b600181811c908216806200011d57607f821691505b6020821081036200013e57634e487b7160e01b600052602260045260246000fd5b50919050565b601f82111562000194576000816000526020600020601f850160051c810160208610156200016f5750805b601f850160051c820191505b8181101562000190578281556001016200017b565b5050505b505050565b81516001600160401b03811115620001b557620001b5620000f2565b620001cd81620001c6845462000108565b8462000144565b602080601f831160018114620002055760008415620001ec5750858301515b600019600386901b1c1916600185901b17855562000190565b600085815260208120601f198616915b82811015620002365788860151825594840194600190910190840162000215565b5085821015620002555787850151600019600388901b60f8161c191681555b5050505050600190811b01905550565b6137b280620002756000396000f3fe60806040526004361061016d5760003560e01c8063715018a6116100c7578063715018a6146103675780638da5cb5b1461037c57806395d89b4114610391578063961f0944146103a6578063988c1032146103c6578063a22cb465146103f9578063b88d4fde14610419578063bf162d6714610439578063c78f19f914610459578063c87b56dd14610474578063d076f13f14610494578063e0391b09146104b4578063e2afe8b3146104c9578063e985e9c5146104e9578063f2fde38b1461050957600080fd5b8063012386f01461017257806301ffc9a71461019d57806306fdde03146101cd578063081812fc146101ef578063095ea7b31461022757806318160ddd1461024957806323b872dd1461026857806332cb6b0c14610288578063345a98c41461029f57806342842e0e146102bf578063476343ee146102df57806351ed8288146102f45780636352211e146103075780636be9479b1461032757806370a0823114610347575b600080fd5b34801561017e57600080fd5b50610187610529565b6040516101949190612e36565b60405180910390f35b3480156101a957600080fd5b506101bd6101b8366004612f48565b6108ad565b6040519015158152602001610194565b3480156101d957600080fd5b506101e26108d8565b6040516101949190612f65565b3480156101fb57600080fd5b5061020f61020a366004612f78565b61096a565b6040516001600160a01b039091168152602001610194565b34801561023357600080fd5b50610247610242366004612fad565b610991565b005b34801561025557600080fd5b506009545b604051908152602001610194565b34801561027457600080fd5b50610247610283366004612fd7565b610aab565b34801561029457600080fd5b5061025a620f424081565b3480156102ab57600080fd5b5061025a6102ba3660046130be565b610adc565b3480156102cb57600080fd5b506102476102da366004612fd7565b610e31565b3480156102eb57600080fd5b50610247610e4c565b610247610302366004612f78565b610ef5565b34801561031357600080fd5b5061020f610322366004612f78565b61121e565b34801561033357600080fd5b5061025a610342366004612fad565b611252565b34801561035357600080fd5b5061025a61036236600461314d565b611283565b34801561037357600080fd5b50610247611309565b34801561038857600080fd5b5061020f61131d565b34801561039d57600080fd5b506101e261132c565b3480156103b257600080fd5b506101bd6103c1366004612f78565b61133b565b3480156103d257600080fd5b506103e66103e1366004612f78565b611448565b6040516101949796959493929190613168565b34801561040557600080fd5b506102476104143660046131d2565b61162a565b34801561042557600080fd5b5061024761043436600461320e565b611639565b34801561044557600080fd5b506103e6610454366004612f78565b611671565b34801561046557600080fd5b5061025a66038d7ea4c6800081565b34801561048057600080fd5b506101e261048f366004612f78565b6116a6565b3480156104a057600080fd5b506101bd6104af366004612f78565b6117ae565b3480156104c057600080fd5b5061018761198d565b3480156104d557600080fd5b506101876104e436600461314d565b611caf565b3480156104f557600080fd5b506101bd610504366004613289565b612042565b34801561051557600080fd5b5061024761052436600461314d565b612070565b6060600060015b6009548111610573576000818152600a602052604090206006015460ff1615610561578161055d816132d2565b9250505b8061056b816132d2565b915050610530565b506000816001600160401b0381111561058e5761058e613013565b6040519080825280602002602001820160405280156105c757816020015b6105b4612c97565b8152602001906001900390816105ac5790505b509050600060015b60095481116108a4576000818152600a602052604090206006015460ff161561089257600a6000828152602001908152602001600020604051806101000160405290816000820154815260200160018201805461062b906132eb565b80601f0160208091040260200160405190810160405280929190818152602001828054610657906132eb565b80156106a45780601f10610679576101008083540402835291602001916106a4565b820191906000526020600020905b81548152906001019060200180831161068757829003601f168201915b505050505081526020016002820180546106bd906132eb565b80601f01602080910402602001604051908101604052809291908181526020018280546106e9906132eb565b80156107365780601f1061070b57610100808354040283529160200191610736565b820191906000526020600020905b81548152906001019060200180831161071957829003601f168201915b5050505050815260200160038201805461074f906132eb565b80601f016020809104026020016040519081016040528092919081815260200182805461077b906132eb565b80156107c85780601f1061079d576101008083540402835291602001916107c8565b820191906000526020600020905b8154815290600101906020018083116107ab57829003601f168201915b505050918352505060048201546001600160a01b03166020808301919091526005830154604080840191909152600684015460ff1615156060840152600784018054825181850281018501909352808352608090940193919290919083018282801561085d57602002820191906000526020600020905b81546001600160a01b0316815260019091019060200180831161083f575b5050505050815250508383815181106108785761087861331f565b6020026020010181905250818061088e906132d2565b9250505b8061089c816132d2565b9150506105cf565b50909392505050565b60006001600160e01b03198216632483248360e11b14806108d257506108d2826120e6565b92915050565b6060600080546108e7906132eb565b80601f0160208091040260200160405190810160405280929190818152602001828054610913906132eb565b80156109605780601f1061093557610100808354040283529160200191610960565b820191906000526020600020905b81548152906001019060200180831161094357829003601f168201915b5050505050905090565b600061097582612136565b506000908152600460205260409020546001600160a01b031690565b600061099c8261121e565b9050806001600160a01b0316836001600160a01b031603610a0e5760405162461bcd60e51b815260206004820152602160248201527f4552433732313a20617070726f76616c20746f2063757272656e74206f776e656044820152603960f91b60648201526084015b60405180910390fd5b336001600160a01b0382161480610a2a5750610a2a8133612042565b610a9c5760405162461bcd60e51b815260206004820152603d60248201527f4552433732313a20617070726f76652063616c6c6572206973206e6f7420746f60448201527f6b656e206f776e6572206f7220617070726f76656420666f7220616c6c0000006064820152608401610a05565b610aa6838361215b565b505050565b610ab533826121c9565b610ad15760405162461bcd60e51b8152600401610a0590613335565b610aa6838383612227565b6000620f4240610aeb60095490565b610af6906001613382565b1115610b395760405162461bcd60e51b815260206004820152601260248201527113585e081cdd5c1c1b1e481c995858da195960721b6044820152606401610a05565b60008211610b7d5760405162461bcd60e51b815260206004820152601160248201527005072696365206d757374206265203e203607c1b6044820152606401610a05565b6000610b8860095490565b610b93906001613382565b9050610b9f338261238b565b610ba981856123a5565b60098054906000610bb9836132d2565b9091555050604080516101008101825282815260208082018981528284018990526060830188905233608084015260a08301879052600060c084018190528451818152808401865260e0850152858152600a9092529290208151815591519091906001820190610c2990826133fa565b5060408201516002820190610c3e90826133fa565b5060608201516003820190610c5390826133fa565b5060808201516004820180546001600160a01b0319166001600160a01b0390921691909117905560a0820151600582015560c082015160068201805460ff191691151591909117905560e08201518051610cb7916007840191602090910190612ce7565b5050336000908152600b6020908152604080832080546001818101835591855283852001869055858452600a9092528220600c805480840182559352805460089093027fdf6966c971051c3d54ec59162606531493a51404a002842f56009d7e5cf4a8c781019384559093507fdf6966c971051c3d54ec59162606531493a51404a002842f56009d7e5cf4a8c80190610d52908401826134b3565b50600281810190610d65908401826134b3565b50600381810190610d78908401826134b3565b5060048281015490820180546001600160a01b0319166001600160a01b0390921691909117905560058083015490820155600680830154908201805460ff909216151560ff1990921691909117905560078083018054610ddb9284019190612d4c565b505050336001600160a01b0316817f180bd32f9a7e1550bde3e8ac66ebf588c8be07ee05b29a7d778eabf2bf9a05a088888888604051610e1e949392919061357f565b60405180910390a390505b949350505050565b610aa683838360405180602001604052806000815250611639565b610e54612461565b6000610e5e61131d565b6001600160a01b03164760405160006040518083038185875af1925050503d8060008114610ea8576040519150601f19603f3d011682016040523d82523d6000602084013e610ead565b606091505b5050905080610ef25760405162461bcd60e51b815260206004820152601160248201527015da5d1a191c985dd85b0819985a5b1959607a1b6044820152606401610a05565b50565b610efd6124c0565b6000818152600a60205260409020600681015460ff16610f4c5760405162461bcd60e51b815260206004820152600a602482015269139bdd081b1a5cdd195960b21b6044820152606401610a05565b8060050154341015610f955760405162461bcd60e51b8152602060048201526012602482015271496e73756666696369656e742066756e647360701b6044820152606401610a05565b66038d7ea4c6800081600501541015610ff05760405162461bcd60e51b815260206004820152601d60248201527f4c697374696e67206665652065786365656473204e46542070726963650000006044820152606401610a05565b600481015460058201546001600160a01b0390911690600061101966038d7ea4c68000836135ca565b600485018054336001600160a01b0319918216811790925560068701805460ff19169055600787018054600181018255600091825260209091200180549091166001600160a01b03871617905590915061107590849087612227565b61107f8386612519565b336000908152600b60209081526040822080546001810182559083529120018590556110aa856125dd565b6000836001600160a01b03168260405160006040518083038185875af1925050503d80600081146110f7576040519150601f19603f3d011682016040523d82523d6000602084013e6110fc565b606091505b505090508061113f5760405162461bcd60e51b815260206004820152600f60248201526e151c985b9cd9995c8819985a5b1959608a1b6044820152606401610a05565b823411156111d85760003361115485346135ca565b604051600081818185875af1925050503d8060008114611190576040519150601f19603f3d011682016040523d82523d6000602084013e611195565b606091505b50509050806111d65760405162461bcd60e51b815260206004820152600d60248201526c1499599d5b990819985a5b1959609a1b6044820152606401610a05565b505b604051838152339087907f26701af1547d690b8c46ed5f0fbb8d5b115492b3b898f3dfc2e87b26cfcc1b149060200160405180910390a35050505050610ef26001600855565b60008061122a836126f6565b90506001600160a01b0381166108d25760405162461bcd60e51b8152600401610a05906135dd565b600b602052816000526040600020818154811061126e57600080fd5b90600052602060002001600091509150505481565b60006001600160a01b0382166112ed5760405162461bcd60e51b815260206004820152602960248201527f4552433732313a2061646472657373207a65726f206973206e6f7420612076616044820152683634b21037bbb732b960b91b6064820152608401610a05565b506001600160a01b031660009081526003602052604090205490565b611311612461565b61131b6000612711565b565b6007546001600160a01b031690565b6060600180546108e7906132eb565b6000336113478361121e565b6001600160a01b0316146113a75760405162461bcd60e51b815260206004820152602160248201527f4f6e6c7920746865206f776e65722063616e20756e6c69737420746865204e466044820152601560fa1b6064820152608401610a05565b6000828152600a60205260409020600681015460ff166113fd5760405162461bcd60e51b8152602060048201526011602482015270139195081a5cc81b9bdd081b1a5cdd1959607a1b6044820152606401610a05565b60068101805460ff19169055611412836125dd565b604051339084907fb765e971c123cbdac007f49987b1aac638149f995ba62034fc509604cac5f01e90600090a350600192915050565b600a602052600090815260409020805460018201805491929161146a906132eb565b80601f0160208091040260200160405190810160405280929190818152602001828054611496906132eb565b80156114e35780601f106114b8576101008083540402835291602001916114e3565b820191906000526020600020905b8154815290600101906020018083116114c657829003601f168201915b5050505050908060020180546114f8906132eb565b80601f0160208091040260200160405190810160405280929190818152602001828054611524906132eb565b80156115715780601f1061154657610100808354040283529160200191611571565b820191906000526020600020905b81548152906001019060200180831161155457829003601f168201915b505050505090806003018054611586906132eb565b80601f01602080910402602001604051908101604052809291908181526020018280546115b2906132eb565b80156115ff5780601f106115d4576101008083540402835291602001916115ff565b820191906000526020600020905b8154815290600101906020018083116115e257829003601f168201915b505050506004830154600584015460069094015492936001600160a01b039091169290915060ff1687565b611635338383612763565b5050565b61164333836121c9565b61165f5760405162461bcd60e51b8152600401610a0590613335565b61166b8484848461282d565b50505050565b600c818154811061168157600080fd5b6000918252602090912060089091020180546001820180549193509061146a906132eb565b60606116b182612136565b600082815260066020526040812080546116ca906132eb565b80601f01602080910402602001604051908101604052809291908181526020018280546116f6906132eb565b80156117435780601f1061171857610100808354040283529160200191611743565b820191906000526020600020905b81548152906001019060200180831161172657829003601f168201915b50505050509050600061176160408051602081019091526000815290565b90508051600003611773575092915050565b8151156117a557808260405160200161178d92919061360f565b60405160208183030381529060405292505050919050565b610e2984612860565b6000336117ba8361121e565b6001600160a01b0316146118105760405162461bcd60e51b815260206004820152601f60248201527f4f6e6c7920746865206f776e65722063616e206c69737420746865204e4654006044820152606401610a05565b6000828152600a602052604090206005015461186e5760405162461bcd60e51b815260206004820152601f60248201527f5072696365206d7573742062652067726561746572207468616e207a65726f006044820152606401610a05565b6000828152600a60205260409020600681015460ff16156118c95760405162461bcd60e51b8152602060048201526015602482015274139195081a5cc8185b1c9958591e481b1a5cdd1959605a1b6044820152606401610a05565b66038d7ea4c68000816005015410156119245760405162461bcd60e51b815260206004820152601c60248201527f5072696365206d75737420636f766572206c697374696e6720666565000000006044820152606401610a05565b60068101805460ff1916600117905561193c836125dd565b336001600160a01b0316837fd2ab19646d6f9fdd37206f962b4ebaab8a4a23ad87f7695e7e1736803cb8bf74836005015460405161197c91815260200190565b60405180910390a350600192915050565b6060600061199a60095490565b6001600160401b038111156119b1576119b1613013565b6040519080825280602002602001820160405280156119ea57816020015b6119d7612c97565b8152602001906001900390816119cf5790505b50905060015b6009548111611ca957600a60008281526020019081526020016000206040518061010001604052908160008201548152602001600182018054611a32906132eb565b80601f0160208091040260200160405190810160405280929190818152602001828054611a5e906132eb565b8015611aab5780601f10611a8057610100808354040283529160200191611aab565b820191906000526020600020905b815481529060010190602001808311611a8e57829003601f168201915b50505050508152602001600282018054611ac4906132eb565b80601f0160208091040260200160405190810160405280929190818152602001828054611af0906132eb565b8015611b3d5780601f10611b1257610100808354040283529160200191611b3d565b820191906000526020600020905b815481529060010190602001808311611b2057829003601f168201915b50505050508152602001600382018054611b56906132eb565b80601f0160208091040260200160405190810160405280929190818152602001828054611b82906132eb565b8015611bcf5780601f10611ba457610100808354040283529160200191611bcf565b820191906000526020600020905b815481529060010190602001808311611bb257829003601f168201915b505050918352505060048201546001600160a01b03166020808301919091526005830154604080840191909152600684015460ff16151560608401526007840180548251818502810185019093528083526080909401939192909190830182828015611c6457602002820191906000526020600020905b81546001600160a01b03168152600190910190602001808311611c46575b50505050508152505082600183611c7b91906135ca565b81518110611c8b57611c8b61331f565b60200260200101819052508080611ca1906132d2565b9150506119f0565b50919050565b6060600060015b6009548111611d0057836001600160a01b0316611cd28261121e565b6001600160a01b031603611cee5781611cea816132d2565b9250505b80611cf8816132d2565b915050611cb6565b506000816001600160401b03811115611d1b57611d1b613013565b604051908082528060200260200182016040528015611d5457816020015b611d41612c97565b815260200190600190039081611d395790505b509050600060015b600954811161203857856001600160a01b0316611d788261121e565b6001600160a01b03160361202657600a60008281526020019081526020016000206040518061010001604052908160008201548152602001600182018054611dbf906132eb565b80601f0160208091040260200160405190810160405280929190818152602001828054611deb906132eb565b8015611e385780601f10611e0d57610100808354040283529160200191611e38565b820191906000526020600020905b815481529060010190602001808311611e1b57829003601f168201915b50505050508152602001600282018054611e51906132eb565b80601f0160208091040260200160405190810160405280929190818152602001828054611e7d906132eb565b8015611eca5780601f10611e9f57610100808354040283529160200191611eca565b820191906000526020600020905b815481529060010190602001808311611ead57829003601f168201915b50505050508152602001600382018054611ee3906132eb565b80601f0160208091040260200160405190810160405280929190818152602001828054611f0f906132eb565b8015611f5c5780601f10611f3157610100808354040283529160200191611f5c565b820191906000526020600020905b815481529060010190602001808311611f3f57829003601f168201915b505050918352505060048201546001600160a01b03166020808301919091526005830154604080840191909152600684015460ff16151560608401526007840180548251818502810185019093528083526080909401939192909190830182828015611ff157602002820191906000526020600020905b81546001600160a01b03168152600190910190602001808311611fd3575b50505050508152505083838151811061200c5761200c61331f565b60200260200101819052508180612022906132d2565b9250505b80612030816132d2565b915050611d5c565b5090949350505050565b6001600160a01b03918216600090815260056020908152604080832093909416825291909152205460ff1690565b612078612461565b6001600160a01b0381166120dd5760405162461bcd60e51b815260206004820152602660248201527f4f776e61626c653a206e6577206f776e657220697320746865207a65726f206160448201526564647265737360d01b6064820152608401610a05565b610ef281612711565b60006001600160e01b031982166380ac58cd60e01b148061211757506001600160e01b03198216635b5e139f60e01b145b806108d257506301ffc9a760e01b6001600160e01b03198316146108d2565b61213f816128d4565b610ef25760405162461bcd60e51b8152600401610a05906135dd565b600081815260046020526040902080546001600160a01b0319166001600160a01b03841690811790915581906121908261121e565b6001600160a01b03167f8c5be1e5ebec7d5bd14f71427d1e84f3dd0314c0f7b2291e5b200ac8c7c3b92560405160405180910390a45050565b6000806121d58361121e565b9050806001600160a01b0316846001600160a01b031614806121fc57506121fc8185612042565b80610e295750836001600160a01b03166122158461096a565b6001600160a01b031614949350505050565b826001600160a01b031661223a8261121e565b6001600160a01b0316146122605760405162461bcd60e51b8152600401610a059061363e565b6001600160a01b0382166122c25760405162461bcd60e51b8152602060048201526024808201527f4552433732313a207472616e7366657220746f20746865207a65726f206164646044820152637265737360e01b6064820152608401610a05565b826001600160a01b03166122d58261121e565b6001600160a01b0316146122fb5760405162461bcd60e51b8152600401610a059061363e565b600081815260046020908152604080832080546001600160a01b03199081169091556001600160a01b0387811680865260038552838620805460001901905590871680865283862080546001019055868652600290945282852080549092168417909155905184937fddf252ad1be2c89b69c2b068fc378daa952ba7f163c4a11628f55a4df523b3ef91a4505050565b6116358282604051806020016040528060008152506128f1565b6123ae826128d4565b6124115760405162461bcd60e51b815260206004820152602e60248201527f45524337323155524953746f726167653a2055524920736574206f66206e6f6e60448201526d32bc34b9ba32b73a103a37b5b2b760911b6064820152608401610a05565b600082815260066020526040902061242982826133fa565b506040518281527ff8e1a15aba9398e019f0b49df1a4fde98ee17ae345cb5f6b5e2c27f5033e8ce79060200160405180910390a15050565b3361246a61131d565b6001600160a01b03161461131b5760405162461bcd60e51b815260206004820181905260248201527f4f776e61626c653a2063616c6c6572206973206e6f7420746865206f776e65726044820152606401610a05565b6002600854036125125760405162461bcd60e51b815260206004820152601f60248201527f5265656e7472616e637947756172643a207265656e7472616e742063616c6c006044820152606401610a05565b6002600855565b6001600160a01b0382166000908152600b60205260408120905b815481101561166b578282828154811061254f5761254f61331f565b9060005260206000200154036125d5578154829061256f906001906135ca565b8154811061257f5761257f61331f565b906000526020600020015482828154811061259c5761259c61331f565b9060005260206000200181905550818054806125ba576125ba613683565b6001900381819060005260206000200160009055905561166b565b600101612533565b60005b600c548110156116355781600c82815481106125fe576125fe61331f565b906000526020600020906008020160000154036126ee576000828152600a60205260409020600c8054839081106126375761263761331f565b60009182526020909120825460089092020190815560018082019061265e908401826134b3565b50600281810190612671908401826134b3565b50600381810190612684908401826134b3565b5060048281015490820180546001600160a01b0319166001600160a01b0390921691909117905560058083015490820155600680830154908201805460ff909216151560ff19909216919091179055600780830180546126e79284019190612d4c565b5050505050565b6001016125e0565b6000908152600260205260409020546001600160a01b031690565b600780546001600160a01b038381166001600160a01b0319831681179093556040519116919082907f8be0079c531659141344cd1fd0a4f28419497f9722a3daafe3b4186f6b6457e090600090a35050565b816001600160a01b0316836001600160a01b0316036127c05760405162461bcd60e51b815260206004820152601960248201527822a9219b99189d1030b8383937bb32903a379031b0b63632b960391b6044820152606401610a05565b6001600160a01b03838116600081815260056020908152604080832094871680845294825291829020805460ff191686151590811790915591519182527f17307eab39ab6107e8899845ad3d59bd9653f200f220920489ca2b5937696c31910160405180910390a3505050565b612838848484612227565b61284484848484612924565b61166b5760405162461bcd60e51b8152600401610a0590613699565b606061286b82612136565b600061288260408051602081019091526000815290565b905060008151116128a257604051806020016040528060008152506128cd565b806128ac84612a22565b6040516020016128bd92919061360f565b6040516020818303038152906040525b9392505050565b6000806128e0836126f6565b6001600160a01b0316141592915050565b6128fb8383612ab4565b6129086000848484612924565b610aa65760405162461bcd60e51b8152600401610a0590613699565b60006001600160a01b0384163b15612a1a57604051630a85bd0160e11b81526001600160a01b0385169063150b7a02906129689033908990889088906004016136eb565b6020604051808303816000875af19250505080156129a3575060408051601f3d908101601f191682019092526129a091810190613728565b60015b612a00573d8080156129d1576040519150601f19603f3d011682016040523d82523d6000602084013e6129d6565b606091505b5080516000036129f85760405162461bcd60e51b8152600401610a0590613699565b805181602001fd5b6001600160e01b031916630a85bd0160e11b149050610e29565b506001610e29565b60606000612a2f83612bc1565b60010190506000816001600160401b03811115612a4e57612a4e613013565b6040519080825280601f01601f191660200182016040528015612a78576020820181803683370190505b5090508181016020015b600019016f181899199a1a9b1b9c1cb0b131b232b360811b600a86061a8153600a8504945084612a8257509392505050565b6001600160a01b038216612b0a5760405162461bcd60e51b815260206004820181905260248201527f4552433732313a206d696e7420746f20746865207a65726f20616464726573736044820152606401610a05565b612b13816128d4565b15612b305760405162461bcd60e51b8152600401610a0590613745565b612b39816128d4565b15612b565760405162461bcd60e51b8152600401610a0590613745565b6001600160a01b038216600081815260036020908152604080832080546001019055848352600290915280822080546001600160a01b0319168417905551839291907fddf252ad1be2c89b69c2b068fc378daa952ba7f163c4a11628f55a4df523b3ef908290a45050565b60008072184f03e93ff9f4daa797ed6e38ed64bf6a1f0160401b8310612c005772184f03e93ff9f4daa797ed6e38ed64bf6a1f0160401b830492506040015b6904ee2d6d415b85acef8160201b8310612c2a576904ee2d6d415b85acef8160201b830492506020015b662386f26fc100008310612c4857662386f26fc10000830492506010015b6305f5e1008310612c60576305f5e100830492506008015b6127108310612c7457612710830492506004015b60648310612c86576064830492506002015b600a83106108d25760010192915050565b6040518061010001604052806000815260200160608152602001606081526020016060815260200160006001600160a01b0316815260200160008152602001600015158152602001606081525090565b828054828255906000526020600020908101928215612d3c579160200282015b82811115612d3c57825182546001600160a01b0319166001600160a01b03909116178255602090920191600190910190612d07565b50612d48929150612d8c565b5090565b828054828255906000526020600020908101928215612d3c5760005260206000209182015b82811115612d3c578254825591600101919060010190612d71565b5b80821115612d485760008155600101612d8d565b60005b83811015612dbc578181015183820152602001612da4565b50506000910152565b60008151808452612ddd816020860160208601612da1565b601f01601f19169290920160200192915050565b60008151808452602080850194506020840160005b83811015612e2b5781516001600160a01b031687529582019590820190600101612e06565b509495945050505050565b600060208083018184528085518083526040925060408601915060408160051b87010184880160005b83811015612f2457603f1989840301855281516101008151855288820151818a870152612e8e82870182612dc5565b9150508782015185820389870152612ea68282612dc5565b91505060608083015186830382880152612ec08382612dc5565b92505050608080830151612ede828801826001600160a01b03169052565b505060a0828101519086015260c08083015115159086015260e09182015185820392860192909252612f108183612df1565b968901969450505090860190600101612e5f565b509098975050505050505050565b6001600160e01b031981168114610ef257600080fd5b600060208284031215612f5a57600080fd5b81356128cd81612f32565b6020815260006128cd6020830184612dc5565b600060208284031215612f8a57600080fd5b5035919050565b80356001600160a01b0381168114612fa857600080fd5b919050565b60008060408385031215612fc057600080fd5b612fc983612f91565b946020939093013593505050565b600080600060608486031215612fec57600080fd5b612ff584612f91565b925061300360208501612f91565b9150604084013590509250925092565b634e487b7160e01b600052604160045260246000fd5b60006001600160401b038084111561304357613043613013565b604051601f8501601f19908116603f0116810190828211818310171561306b5761306b613013565b8160405280935085815286868601111561308457600080fd5b858560208301376000602087830101525050509392505050565b600082601f8301126130af57600080fd5b6128cd83833560208501613029565b600080600080608085870312156130d457600080fd5b84356001600160401b03808211156130eb57600080fd5b6130f78883890161309e565b9550602087013591508082111561310d57600080fd5b6131198883890161309e565b9450604087013591508082111561312f57600080fd5b5061313c8782880161309e565b949793965093946060013593505050565b60006020828403121561315f57600080fd5b6128cd82612f91565b87815260e06020820152600061318160e0830189612dc5565b82810360408401526131938189612dc5565b905082810360608401526131a78188612dc5565b6001600160a01b03969096166080840152505060a0810192909252151560c090910152949350505050565b600080604083850312156131e557600080fd5b6131ee83612f91565b91506020830135801515811461320357600080fd5b809150509250929050565b6000806000806080858703121561322457600080fd5b61322d85612f91565b935061323b60208601612f91565b92506040850135915060608501356001600160401b0381111561325d57600080fd5b8501601f8101871361326e57600080fd5b61327d87823560208401613029565b91505092959194509250565b6000806040838503121561329c57600080fd5b6132a583612f91565b91506132b360208401612f91565b90509250929050565b634e487b7160e01b600052601160045260246000fd5b6000600182016132e4576132e46132bc565b5060010190565b600181811c908216806132ff57607f821691505b602082108103611ca957634e487b7160e01b600052602260045260246000fd5b634e487b7160e01b600052603260045260246000fd5b6020808252602d908201527f4552433732313a2063616c6c6572206973206e6f7420746f6b656e206f776e6560408201526c1c881bdc88185c1c1c9bdd9959609a1b606082015260800190565b808201808211156108d2576108d26132bc565b601f821115610aa6576000816000526020600020601f850160051c810160208610156133be5750805b601f850160051c820191505b818110156133dd578281556001016133ca565b505050505050565b600019600383901b1c191660019190911b1790565b81516001600160401b0381111561341357613413613013565b6134278161342184546132eb565b84613395565b602080601f83116001811461345657600084156134445750858301515b61344e85826133e5565b8655506133dd565b600085815260208120601f198616915b8281101561348557888601518255948401946001909101908401613466565b50858210156134a35787850151600019600388901b60f8161c191681555b5050505050600190811b01905550565b8181036134be575050565b6134c882546132eb565b6001600160401b038111156134df576134df613013565b6134ed8161342184546132eb565b6000601f82116001811461351b57600083156135095750848201545b61351384826133e5565b8555506126e7565b600085815260209020601f19841690600086815260209020845b838110156135555782860154825560019586019590910190602001613535565b50858310156134a35793015460001960f8600387901b161c19169092555050600190811b01905550565b6080815260006135926080830187612dc5565b82810360208401526135a48187612dc5565b905082810360408401526135b88186612dc5565b91505082606083015295945050505050565b818103818111156108d2576108d26132bc565b602080825260189082015277115490cdcc8c4e881a5b9d985b1a59081d1bdad95b88125160421b604082015260600190565b60008351613621818460208801612da1565b835190830190613635818360208801612da1565b01949350505050565b60208082526025908201527f4552433732313a207472616e736665722066726f6d20696e636f72726563742060408201526437bbb732b960d91b606082015260800190565b634e487b7160e01b600052603160045260246000fd5b60208082526032908201527f4552433732313a207472616e7366657220746f206e6f6e20455243373231526560408201527131b2b4bb32b91034b6b83632b6b2b73a32b960711b606082015260800190565b6001600160a01b038581168252841660208201526040810183905260806060820181905260009061371e90830184612dc5565b9695505050505050565b60006020828403121561373a57600080fd5b81516128cd81612f32565b6020808252601c908201527f4552433732313a20746f6b656e20616c7265616479206d696e7465640000000060408201526060019056fea2646970667358221220759b2b7ddb6a4082c8f6334549b3b52cae613b307256002c683495a894a2939d64736f6c63430008180033",
  "linkReferences": {},
  "deployedLinkReferences": {}
}